:020000040800F2
:100000007806002021020008910C0008890C0008E5
:100010008D0C000819040008A50C00080000000061
:10002000000000000000000000000000990C000823
:100030001D04000800000000950C00089D0C00083D
:100040003B0200083B0200083B0200083B0200089C
:100050003B0200083B0200083B0200083B0200088C
:100060003B0200083B0200083B0200083B0200087C
:100070003B0200083B0200083B0200083B0200086C
:100080003B0200083B0200083B0200083B0200085C
:100090003B0200083B0200083B0200083B0200084C
:1000A0003B0200083B0200083B0200083B0200083C
:1000B0003B0200083B0200083B0200083B0200082C
:1000C0003B0200083B0200083B0200083B0200081C
:1000D0003B0200083B0200083B0200083B0200080C
:1000E0003B0200083B0200083B0200083B020008FC
:1000F0003B0200083B0200083B0200083B020008EC
:100100003B0200083B0200083B0200083B020008DB
:100110003B0200083B0200083B0200083B020008CB
:100120003B0200083B0200083B0200083B020008BB
:100130003B02000800000000000000003B02000835
:100140003B0200083B0200083B0200083B0200089B
:100150003B0200083B0200083B0200083B0200088B
:100160003B0200083B0200083B0200083B0200087B
:100170003B0200083B0200080000000000000000F5
:100180003B02000800F002F800F03AF80AA090E8FC
:10019000000C82448344AAF10107DA4501D100F042
:1001A0002FF8AFF2090EBAE80F0013F0010F18BFD5
:1001B000FB1A43F001031847840E0000A40E000050
:1001C000103A24BF78C878C1FAD8520724BF30C883
:1001D00030C144BF04680C60704700000023002455
:1001E00000250026103A28BF78C1FBD8520728BF47
:1001F00030C148BF0B6070471FB51FBD10B510BDA3
:1002000000F0D0F81146FFF7F7FF00F04DFD00F0C9
:10021000EEF803B4FFF7F2FF03BC00F0F5F80000BE
:100220000948804709480047FEE7FEE7FEE7FEE78A
:10023000FEE7FEE7FEE7FEE7FEE7FEE704480549C6
:10024000054A064B70470000A10C00088501000814
:100250007800002078060020780200207802002034
:1002600053EA020C00F069802DE9F04B4FF00006D4
:10027000002B1FBFB3FA83F503FA05F424FA05F641
:100280005E4012BF1643B2FA82F502FA05F4C5F1D8
:1002900020051EBF22FA05FC44EA0C04203556EA6C
:1002A000044C4FEA144418BF641C4FF000084FF090
:1002B0000009904271EB030C39D3002919BFB1FA40
:1002C00081F701FA07F6B0FA80F700FA07F6C7F1EE
:1002D00020071EBF20FA07FC46EA0C062037B6FBB3
:1002E000F4FCA7EB0507103F07F01F0BCBF120062E
:1002F0002CFA06F60CFA0BFB44BFB3460026202F5F
:10030000A4BF5E464FF0000B5BEA060C08BF4FF03F
:10031000010B19EB0B0948EB0608ABFB027C06FB53
:1003200002CC0BFB03CCC01B71EB0C01C1E70B46ED
:10033000024641464846BDE8F08B13B5084318BF56
:100340004FF0FF300146AFF30080BDE81C4070471E
:100350004FF0000200B5134694469646203922BF5E
:10036000A0E80C50A0E80C50B1F12001BFF4F7AFA9
:10037000090728BFA0E80C5048BF0CC05DF804EB8B
:10038000890028BF40F8042B08BF704748BF20F8F9
:10039000022B11F0804F18BF00F8012B70477047F7
:1003A00070477047754600F02BF8AE460500694669
:1003B000534620F00700854618B020B5FFF73EFFF2
:1003C000BDE820404FF000064FF000074FF0000856
:1003D0004FF0000BAC46ACE8C009ACE8C009ACE893
:1003E000C009ACE8C00921F007018D46704710B57F
:1003F0000446AFF300802046BDE81040FFF709BF78
:10040000004870471000002001491820ABBEFEE7ED
:100410002600020070470000FEE700007047000061
:100420002DE9F04F84B08E4642F20002C4F202027F
:10043000DEF800600921904208BF0821002E0091DB
:1004400000F0DA8000F13E4202F1FF724FEAB2237F
:100450000099002501274FF000084FF00009082BF4
:1004600038BF19460091CDF808E00DE0DEF80060D5
:1004700009F1010936FA07F108F1020807F101074D
:1004800005F1040500F0B880A7F1010B012101FA84
:100490000BF316EA030AE9D0DEF804C00CF00306F9
:1004A000741E012C1AD88268714601920322CC680E
:1004B000019902FA08F2914304FA08F42143816099
:1004C00041684FEA490E9943CCF3001303FA0BF34A
:1004D0007446D243194341600CE000BF032101FA86
:1004E00008F1CA43032E444604D1DDF808E044462F
:1004F000032627E0C168DDF808E01140DEF8083087
:10050000022E03FA04F341EA0301C1601AD16FF02D
:10051000030101EA5B01014405F01C060F23D1F839
:1005200020C0A64603FA06F4029B2CEA04041B69C9
:10053000B34023437446DDF808E00B62DEF804C0E4
:100540000CF0030601681CF4403F01EA020106FAC0
:1005500004F241EA0201016088D0002143F644021E
:100560000391C4F20202116843F6004441F4804151
:1005700011601168C4F2010401F4804103910399F0
:100580002BF003014FF6084C2144CFF6FF7C51F8C5
:100590000C2005F00C030F269E40B243009E06FA85
:1005A00003F31A4341F80C202168DEF8042041EAE5
:1005B0000A03D60358BF21EA0A0323606168960341
:1005C00041EA0A0358BF21EA0A036360A168D60220
:1005D00041EA0A0343F60C4658BF21EA0A03A36026
:1005E000C4F201063168920241EA0A0358BF21EAC7
:1005F0000A0333603AE700BF04B0BDE8F08F0000A3
:100600000069084018BF012070470000002A08BF99
:10061000090481617047000040F27000C2F20000DE
:100620000068704740F2000040F27001C2F2000022
:10063000C2F2000100780A681044086070470000A8
:1006400080B543F60040C4F20200016841F4007135
:100650000160016841F480610160016841F48071CA
:100660000160032000F074F80F2000F005F800F09E
:1006700027F8002080BD000070B540F20006C2F2ED
:10068000000640F208013278C2F200014FF47A739A
:100690000968B3FBF2F20446B1FBF2F1084600F040
:1006A000DDFA0F2C4FF0010508D838B94FF0FF30B4
:1006B00021460022002500F01FF87460284670BD16
:1006C00082B0002043F640010190C4F202014A6862
:1006D00042F480424A604A6802F480420192019AE0
:1006E0000090086840F080500860086800F0805072
:1006F0000090009802B0704710B54EF60C5CCEF238
:10070000000CDCF80030C3F3022E8EF00704042C3A
:1007100028BF0424BEF103034FF0FF3E0EFA04F499
:1007200038BF0023A14399400EFA03F39A431143C3
:1007300000F00F02043A624409010C3200F16043F8
:10074000B0F1FF3FC8BF03F56442117010BD000057
:100750004EF60C51CEF200010A684FF6FF031A4024
:1007600060F30A2242F0806040F0FD70086070473C
:100770002DE9F041002800F0C78043F60808C4F2D4
:1007800002080446D8F8F8030D4600F00F0088422E
:1007900008D288F8F853D8F8F80300F00F00A84200
:1007A00040F0B2802068810717D5410705D5D8F8F9
:1007B000001041F4E051C8F80010010705D5D8F841
:1007C000001041F46041C8F80010D8F80010A26889
:1007D00021F0F0011143C8F80010C00720D1D8F86B
:1007E000F80300F00F00A84208D988F8F853D8F8A9
:1007F000F80300F00F00A84240F08680206841070F
:100800001CD4000724D4D8F8000000F00C000828FD
:100810002DD004284ED147F64000C0F27D104DE0A7
:100820006068022864D001286AD158F8081C89033E
:100830005CBF0120BDE8F0816AE000BFD8F800107D
:10084000E26821F4E0511143C8F800100007DAD53E
:10085000D8F80000216920F4604040EAC100C8F8DF
:100860000000D8F8000000F00C000828D1D158F89A
:10087000040C58F8041C58F8043C490247F640019F
:10088000C0F27D1100F03F02C3F388105CBF42F25A
:100890000041C0F2F401A1FB00010023FFF7E0FCDE
:1008A00058F8041C0222C1F3014102EB4101B0FBE4
:1008B000F1F003E042F20040C0F2F400D8F800107A
:1008C00041F22C02C1F30311C0F60002515C40F268
:1008D000080220FA01F140F20400C2F200000068B0
:1008E000C2F200021160FFF7C7FE0020BDE8F081F0
:1008F00058F8081C89015CBF0120BDE8F08107E0C1
:1009000058F8081C890703D40120BDE8F08100BF16
:10091000D8F8001021F003010843C8F80000FFF7E1
:100920007BFE064641F28837D8F80000616800F087
:100930000C00B0EB810F3FF452AFFFF76DFE801B50
:10094000B842F1D90320BDE8F08100002DE9F04163
:1009500082B0002800F084800446007843F6000648
:10096000C007C4F202062FD0B06800F00C000428C3
:1009700006D13068800327D5606828BB70E000BFCF
:10098000B06800F00C00082802D170684002F0D472
:100990006068B0706568FFF73FFE002D054610D017
:1009A0003068800310D4FFF737FE401B6428F7D966
:1009B000EDE000BFFFF730FE401B64284FF003005E
:1009C0004BD830688003F5D4207880071AD5B068FA
:1009D00010F00C0F09D0B06800F00C00082840F0AF
:1009E00087807068400200F183803068800702D5FC
:1009F000E068012834D13068216920F0F80040EA2D
:100A0000C1003060207800072ED42078400743D4FE
:100A1000A5690DB3B06800F00C00082840F0BC8058
:100A2000012D1DD07068E16900F480028A4217D15F
:100A3000216A00F03F028A4212D1616AC0F3881233
:100A40008A420DD1A16A00F440328A4208D1E16A9B
:100A500000F07060884203D1002002B0BDE8F08150
:100A6000012002B0BDE8F0816069002840F200007A
:100A7000C4F247207CD00121C0F8801EFFF7CCFDD6
:100A8000054600BF706F8007BFD4FFF7C5FD401B50
:100A90000228F7D97BE000BF306C10F080580AD1F3
:100AA00000200190306C40F080503064306C00F0D9
:100AB00080500190019847F20007C4F2000738689F
:100AC00040F4807038603868C00527D4386840F436
:100AD00080703860FFF7A0FD054600BF3868C0058C
:100AE0001CD4FFF799FD401B0228F7D94FE000BF47
:100AF000E068002872D00020C4F247200121016084
:100B0000FFF78AFD054600BF306880073FF573AFE9
:100B1000FFF782FD401B0228F6D938E0A06886F86E
:100B20007000A568FFF778FD002D054641F2883773
:100B300012D000BF306F800711D4FFF76DFD401B4E
:100B4000B842F7D923E000BFFFF766FD401BB8426B
:100B50004FF003003FF681AF306F8007F4D4B8F157
:100B6000000F7FF455AF306C20F0805030644FE7B9
:100B70000021C0F8801EFFF74FFD0546706F80070B
:100B80007FF543AFFFF748FD401B0228F6D903204D
:100B900002B0BDE8F08100BF0027C4F24727002063
:100BA0003866FFF739FD022D05460BD1306880010C
:100BB00028D5FFF731FD401B64284FF00300F5D91D
:100BC0004BE700BF306880017FF546AFFFF724FD9B
:100BD000401B64284FF00300F4D93EE70020C4F224
:100BE000472000210160FFF717FD054630688007A8
:100BF0007FF508AFFFF710FD401B02284FF0030000
:100C0000F4D92AE7706848F20001CFF2BC0104F180
:100C10001C0500EA010C2ECD002041EA0C01E46A1B
:100C2000CFF6FF70114300EBC53041EA83116FF33B
:100C30000F0041EA04610843706001203866FFF745
:100C4000EBFC0446306880013FF506AFFFF7E4FC9B
:100C5000001B64284FF00300F4D9FEE6411E00207B
:100C6000B0EB116F1CBF012070474EF21002CEF2A4
:100C7000000251604EF62351CEF20001F0230B70BA
:100C80000721906011607047FEE70000FEE700005A
:100C9000FEE700007047000070470000FFF7C2BC8D
:100CA00070470000FEE7000094B0FFF7C9FC08ACF5
:100CB000201D2C21FFF74CFB0220089001200B90F7
:100CC00010200C90002520460E95FFF73FFE28B11E
:100CD000EFF3108072B600BFFEE700BF0F20CDE932
:100CE000030503A80021CDE905550795FFF740FD51
:100CF00020B1EFF3108072B6FEE700BF4FF000089E
:100D000043F63000CDE90B88CDF80C80C4F2020028
:100D1000016840F2004741F0100101600168C4F22F
:100D2000020701F0100103910399CDF80C800168CE
:100D3000A7F5806B41F0040101600168012201F018
:100D4000040103910399CDF80C800168012641F05C
:100D500080010160016801F0800103910399CDF8E1
:100D60000C80016841F001010160016801F001019E
:100D700003910399CDF80C80016841F002010160F4
:100D8000016801F0020103910399CDF80C8001681C
:100D900041F0080101600068802100F00800039024
:100DA00003985846FFF732FC384604210122FFF72A
:100DB0002DFC07F5406A50464FF4F0610022FFF722
:100DC00025FC4BF67F0008AC0890032550462146D1
:100DD000CDE90958FFF724FB4FF63F6008A907F556
:100DE000806981E8210148462146FFF719FB07F594
:100DF000C0502146CDE90855CDF82880FFF710FBFB
:100E000041F67F7008A981E8210158462146FFF785
:100E100007FB802008A981E8410158462146CDF80A
:100E20002C80FFF7FDFA4FF6C37008A981E8210175
:100E300038462146FFF7F4FA042008A981E8410169
:100E400038462146CDF82C80FFF7EAFA4FF4F060DF
:100E5000CDE9080650462146CDE90A68FFF7E0FAD9
:100E60004FF48040CDE90808504621460A96FFF726
:100E7000D7FA4DF27F7008A981E8210107F50065D6
:100E800028462146FFF7CCFA4FF42050CDE9080858
:100E9000284621460A96FFF7C3FAC020CDE9080884
:100EA000484621460A96FFF7BBFA4FF48070CDE919
:100EB000080848462146CDF82880CDF80490FFF771
:100EC000AFFA4FF40040CDE90808584621460A968B
:100ED0005646FFF7A5FA8020CDE9080828462146A6
:100EE000CDF82880FFF79CFA3820CDE9080838466D
:100EF0002146CDF82880FFF793FA58468021012239
:100F0000CDF808B0FFF782FB384604210122FFF735
:100F10007DFB40F2004BC4F2020B08E04FF00108E9
:100F200000224E4630464FF48071FFF76FFB284693
:100F30004FF400614746FFF763FB019C8046204663
:100F40004021FFF75DFB824620468021FFF758FBDA
:100F5000044630464FF48041B146FFF751FB064648
:100F600002984FF40041FFF74BFB28464FF4005125
:100F7000FFF746FB58461021FFF742FB5846202159
:100F8000FFF73EFB58460821FFF73AFB2846802131
:100F9000FFF736FB47EA08000006BFD0F8B2012889
:100FA00008BFBAF1000F09D002281CBF47EA0401AC
:100FB0005FEA016106D14FF00308B1E74FF0020884
:100FC0000122AEE787F0030184F001021143C9B2A8
:100FD00000290A4618BF012201284FEA82080CD0D6
:100FE000B1FA81F1490908D1032808BF002E0DD0BC
:100FF00004280FD1012CB84690D05FFA88F004285D
:101000004E4694D807A10A5C8CE700BF4FF0040855
:10101000D6E700BFB8465FFA88F004284E46F1D9FB
:1010200085E700BF01000100010000000000000092
:101030000000000001020304060708096010000810
:101040000000002010000000C0010008701000081F
:101050001000002068060000DC010008000000000D
:1010600001000000100000000024F4000000000057
:040000050800018569
:00000001FF
