:020000040800F2
:10000000B0070020A10100081D2B0008152B0008D7
:10001000192B0008E90B00083D2B00080000000028
:10002000000000000000000000000000252B000878
:10003000050F000800000000212B0008292B0008F4
:10004000BB010008BB010008BB010008BB010008A0
:10005000BB010008BB010008BB010008BB01000890
:10006000BB010008BB010008BB010008F90E000835
:10007000BB010008BB010008BB010008BB01000870
:10008000BB010008BB010008B10A0008BB01000861
:10009000BB010008BB010008BB010008BB01000850
:1000A000BB010008BB010008BB010008BB01000840
:1000B000312B0008BB010008BB010008BB01000890
:1000C000BB010008BB010008BB010008BB01000820
:1000D000BB010008BB010008BB010008BB01000810
:1000E000BB010008BB010008BB01000800F002F8DA
:1000F00000F047F80AA090E8000C82448344AAF17B
:100100000107DA4501D100F03CF8AFF2090EBAE878
:100110000F0013F0010F18BFFB1A43F0010318473B
:10012000303D0000503D0000103A24BF78C878C12F
:10013000FAD8520724BF30C830C144BF04680C60ED
:10014000704700000023002400250026103A28BF35
:1001500078C1FBD8520728BF30C148BF0B60704739
:10016000662903F01186002070471FB500F02AFBB6
:1001700004000020002103F0DDFAE0601FBD10B58F
:1001800010BD00F01FFC1146FFF7EFFF02F0D8FC96
:1001900000F03DFC03B4FFF7F2FF03BC00F080FC6D
:1001A0000948804709480047FEE7FEE7FEE7FEE70B
:1001B000FEE7FEE7FEE7FEE7FEE7FEE70448054947
:1001C000054A064B704700002D2B0008ED00000883
:1001D000B0010020B0070020B0030020B0030020D1
:1001E0000FB41CB5074B06AA7B44694600900598DE
:1001F00000F0CFFA0020694600F0DEFA1CBC5DF882
:1002000014FB0000CD0500002DE9F0474FF0000A77
:1002100089460446C0F820A02046E16888470028A7
:1002200076D0252806D0D4E901219047206A401CC9
:100230002062F1E7E168204600258847C4F81CA049
:1002400006460027C4F818A02A2E09D0304603F02D
:1002500069FA38B304EB8708303EC8F8186019E033
:1002600059F8041B204604EB87029161E168884736
:10027000012F064618D1E069002820DA25F0200574
:100280001DE0D8F8180000EB800006EB4000303885
:10029000C8F818002046E1688847064603F042FA8D
:1002A0000028EED1012F0AD02E2E08D12046E16879
:1002B00088477F1C0646022F45F02005C4DBA06955
:1002C000002803DA404245F00105A061E80701D0AB
:1002D00025F01005B6B1A6F14100192802D8203644
:1002E00045F400654A463146204625604D46FFF7F5
:1002F00037FF58B1012806D0ED1D25F0070000F1A9
:10030000080989E704E005F1040985E730468AE732
:10031000206ABDE8F0874FF0000200B5134694460E
:100320009646203922BFA0E80C50A0E80C50B1F14D
:100330002001BFF4F7AF090728BFA0E80C5048BF61
:100340000CC05DF804EB890028BF40F8042B08BFFF
:10035000704748BF20F8022B11F0804F18BF00F8FB
:10036000012B70477047704770472DE9FF4F0C46CF
:100370001E464FF0FF378BB0D2E90001DDF86080F8
:100380000A908A46C1F30A5505B93D460021084640
:100390004FF00000BAF1000F00F4400005DA00EB66
:1003A00080004FF4400101EA50004FEA9059B9F142
:1003B000010F00DDB9460A9850EA4A000ED044F613
:1003C0001050A5F2FF3545432F14B8F1000F1ED091
:1003D0007542291E1EDDC9F100021CE0B8F1010FB3
:1003E0004FF0000001D0302103E0F24305E021543A
:1003F000401CB042FBDB30460022002121540B9907
:10040000C1F80880C1E900200FB0BDE8F08FBD1B26
:100410006D1CDEE74A4600DA694206A800F05CFA85
:1004200006AB93E8070003AB83E8070050460A9940
:1004300002F09CFD8DE80700A0F500501F380090E9
:100440000398002D0ADD42F21F014A4608440023AA
:1004500003A90390684603F005F809E0A0F50050F1
:100460004A461F38002303A90390684603F00FF89B
:100470008DE807000004000C03D04FF0FF30410866
:1004800000E01046B8F1000F03D00022009215469C
:100490001EE0751E05D400F099F9303262556D1ECC
:1004A000F9D5B3460122084302D000227F1C04E0A4
:1004B0002078302801D100227F1E002A099784D09D
:1004C0001DE0112D07DA00F081F9303262556D1C04
:1004D00050EA0102F5D1084302D00098C8B10EE0FD
:1004E0000021681E05E0235C625C63542254401EB8
:1004F000491C8142F7DBAB46A81B401E0990002037
:1005000004F80B000B98099AC0F80880C0E9002B8A
:100510007AE711264FF0000857E72DE9F04F88469B
:100520000446D21D22F0070191B0D1E90001CDE9C6
:100530000A0103F0E3F802460B98C00F01D02D200A
:1005400007E02068810701D52B2002E0202101EA85
:10055000C000032A099001D0072A05DB0346414663
:10056000204600F079F90BE12078800601D5E0699A
:1005700000E00620B8F1650F814606D0B8F1660F9D
:1005800018D0B8F1670F70D131E00020B9F1110F28
:10059000009001DB112301E009F101030AAA01A97E
:1005A0000CA8FFF7E2FEDDE90C70002609F1010559
:1005B000834647E001204B4600904FF000470AAACF
:1005C00001A90CA8FFF7D1FEDDE90DB00C995D463D
:1005D000002610B909F101000D18B9EB050003D48C
:1005E000C0F1FF3609F10105A5EB09002BE0B9F1D7
:1005F000010F01DA4FF001090020B9F1110F00904D
:10060000484601DD112300E003460AAA01A90CA80F
:10061000FFF7ABFEDDE90C704D46002683462078DF
:1006200000070AD4AB4500DA5D4601A8012D04DDC0
:10063000411911F8011C302907D04F4502DA17F192
:10064000040F04DA012082460FE06D1EEEE7002F52
:1006500002DCED1B3E4403E0781CA84200DD7D1C5B
:10066000B81B00F1010A4FF000472078000703D4BF
:10067000AA4501DB4FF0FF3A0021B7F1004F0DF121
:1006800043088DF8431024D002202B23002F01DAD9
:100690007F422D230A21021EA0F1010000DC5FB180
:1006A00097FBF1FC97FBF1F201FB1C7C17460CF168
:1006B000300C08F801CDEEE7A8F1010003702188A5
:1006C000090501D5452100E06521A0F1010800F8E8
:1006D000011C09980FA9A1EB0807FF1D00B101201B
:1006E000411901EBEA70A1693844081A401EA06163
:1006F0002078C00602D42046AFF30080099828B1C4
:10070000D4E901219047206A401C20622078C0066D
:1007100022D52046AFF300801EE0002E04DBB34557
:1007200002DD01A8805D00E03020D4E9012190477E
:10073000206A401C2062761CAAF101005FEA000AD0
:100740000AD100F03FF8C0680168405CD4E901219B
:100750009047206A401C2062281EA5F10105DCDCC0
:1007600007E0D4E9012118F8010B9047206A401CEA
:100770002062381EA7F10107F3DC2046AFF30080AA
:10078000032011B041E6000001694A1C02610878AB
:10079000704700B58FB0CDE90131002105910549C1
:1007A0007944CDE9031011466846FFF72DFD0FB0DF
:1007B00000BD0000E5FFFFFF0A6802F8010B0A60B8
:1007C00070470000004870473000002030B5B0F19D
:1007D0000A0271F100034FEA900E4EEA817EB0EBFF
:1007E0000E0061EB91014FEA101E4EEA017E10EB04
:1007F0000E0041EB11114FEA102E4EEA016E10EB84
:100800000E0041EB11214FEA104E4EEA014E10EB63
:100810000E0041EB1141401841F100014FEAD000B8
:1008200040EA41704FEAD1014FEA810444EA9074F2
:1008300010EB800544EB01046D1944EB0404521BDA
:10084000A3414FF0000348BF0A3200D530BD401C21
:1008500041F1000130BD00002DE9F0411F46044682
:1008600003260168072A01F4006004DB08B116A51D
:1008700005E016A503E008B115A500E015A521F0D7
:1008800010002060A069C01EA0610FB1401EA061D1
:100890002046AFF300804FB1D4E90121384690479C
:1008A000206A401C2062C01C206206E0206AFAE731
:1008B000D4E9012115F8010B9047761EF8D22046A5
:1008C000AFF30080BDE8F0814E414E006E616E00D6
:1008D000494E4600696E66002DE9F047814616468E
:1008E0008AB0354878440DC88DE80D003248784408
:1008F000801C03AC0DC884E80D0041F69B30084411
:10090000372190FBF1F290FBF1F5A5F1800501FB99
:1009100012041B3C02D56442012000E00020DFF8F5
:1009200098A080460027FA44AAF1BE0A0EE0E0072C
:100930000AD03246684607EB470101230AEB8101E2
:1009400002F0A5FD8DE8070064107F1C002CEED19D
:10095000194F7F44AE3F19E0E80715D007EB0410AC
:100960000DF1180A90E80E008AE80E00C068F04207
:1009700001D1981908903246012306A903A802F074
:1009800086FD03AB83E807006D10641C002DE3D1E6
:100990004FF0010332466946B8F1000F03A802D0B8
:1009A00002F060FD01E002F072FDC9E90001C9F842
:1009B00008200AB0BDE8F0872035000000487047E5
:1009C000100000207546FFF7F9FFAE4605006946A6
:1009D000534620F00700854618B020B5FFF7EEFB20
:1009E000BDE820404FF000064FF000074FF0000830
:1009F0004FF0000BAC46ACE8C009ACE8C009ACE86D
:100A0000C009ACE8C00921F007018D46704710B558
:100A10000446AFF300802046BDE81040FFF7BABBA4
:100A20004FF0013C50F8042B51F8043B9A4221D17D
:100A3000A2EB0C03934313EACC1317D150F8042B09
:100A400051F8043B9A4215D1A2EB0C03934313EAED
:100A5000CC130BD150F8042B51F8043B9A4209D126
:100A6000A2EB0C03934313EACC13DBD04FF000004E
:100A7000704700BFD01A01BAB1FA81F101F0180134
:100A800022FA01F0CB40DBB2C0B2C01AC1F12001A2
:100A90002CFA01F3D11A914311EAC311E6D1704740
:100AA00001491820ABBEFEE7260002007047000097
:100AB00040F29400C2F2000000F002BB0146406A1E
:100AC000826A12F0500F03D0006A026B084610478A
:100AD0000168826A42F400728262896801F46021CE
:100AE000B1F5602F01D1017B11B100F0DFBA00BF79
:100AF000816A21F480718162816AC90448BF00F073
:100B0000D5BA816A41F00101816200F0CFBA0000DC
:100B1000406A816A41F040018162C16A41F004018A
:100B2000C16200F0C7BA0000406A00F0C1BA00001C
:100B3000B0B582B004460020019021688A68D207CF
:100B40004FD1886840F00100886040F20800C2F28E
:100B5000000000684DF68361C4F21B31A0FB010167
:100B6000880C01900198A0B101980138019001987A
:100B700078B1019801380190019850B1019801387D
:100B80000190019828B1019801380190019800283E
:100B9000EAD101F0BFF821688968C9071CD1054670
:100BA00003E000BF8068C0071AD101F0B3F8411B11
:100BB00020680329F6D38168C907F3D1A06A40F001
:100BC0001000A062E06A40F00100E062002084F8BA
:100BD0002400012002B0B0BD002002B0B0BD00BFB3
:100BE000002002B0B0BD0000FEE700002DE9F04F8C
:100BF00083B0044616989C460290159813460190BF
:100C0000DDE90C070A46DDF85080DDE912A9DDE9CF
:100C1000101BDDE90E65208101984FF0000EE064A5
:100C2000029884F800E0A4F8500040F60640C2F6AE
:100C30001400C4F8520032206270A370C4F804C0DB
:100C4000E760268265632187C4F83CB0A4F840A021
:100C5000C4F84490A4F8488000F038FF20463321BF
:100C6000002200F063F8052000F030FF2046332119
:100C7000002200F05BF8052000F028FF204632211A
:100C8000002200F053F8052000F020FF94F85210E5
:100C90002046002200F04AF894F853102046002223
:100CA00000F044F894F854102046002200F03EF87A
:100CB00094F855102046002200F038F82046012113
:100CC000002200F033F820460221002203B0BDE8E4
:100CD000F04F00F02BB8000080B5437890F802E0A8
:100CE0008B4290F800C098BF591E964598BFAEF150
:100CF0000102D2B20CA39A5CBCF1000F11440BD0DC
:100D0000BCF1100F18BF80BD41F08001C9B20022B4
:100D1000BDE8804000F07CB841F08001C9B20022FB
:100D2000BDE8804000F002B800401454B0B504465D
:100D30000D4640682189002A18BF012200F0E4FF17
:100D4000606B218FC5F3001200F0DEFFE06BB4F89A
:100D50004010C5F3401200F0D7FF606CB4F84810A3
:100D6000C5F3801200F0D0FFE06CB4F85010EA092F
:100D700000F0CAFFE068218A002200F0C5FF0120D0
:100D800000F0A4FEE068218A012200F0BDFF0120EE
:100D900000F09CFEE068218A002200F0B5FF0120EF
:100DA00000F094FE606B218F05F0010200F0ACFFB3
:100DB000E06BB4F84010C5F3400200F0A5FF606C92
:100DC000B4F84810C5F3800200F09EFFE06CB4F860
:100DD0005010C5F3C00200F097FFE068218A00229E
:100DE00000F092FF012000F071FEE068218A0122EC
:100DF00000F08AFF012000F069FEE068218A0022ED
:100E000000F082FF0120BDE8B04000F05FBE0000AE
:100E1000B0B504460D4640682189002A18BF01225A
:100E200000F072FF6069218B05F0010200F06CFF99
:100E3000E069218CC5F3400200F066FF606A218DF5
:100E4000C5F3800200F060FFE06A218EC5F3C002A6
:100E500000F05AFF606B218FC5F3001200F054FFC1
:100E6000E06BB4F84010C5F3401200F04DFF606C29
:100E7000B4F84810C5F3801200F046FFE06CB4F8F7
:100E80005010EA0900F040FFE068218A002200F0DB
:100E90003BFF012000F01AFEE068218A012200F0E9
:100EA00033FF012000F012FEE068218A002200F0EA
:100EB0002BFF0120BDE8B04000F008BEB0B50A78B5
:100EC000002A08BFB0BD04464D1C07E0D1B2204641
:100ED0000122FFF72BFF15F8012B5AB120780028CB
:100EE000F4D01028F7D1D1B220460122FFF790FFAD
:100EF000F1E700BFB0BD000040F21C10C2F20000DC
:100F000000F08CBC70470000EFF3108072B600BF99
:100F1000FEE700007047000010B581B0002200928B
:100F200090F82420012A03D10221084601B010BD07
:100F30004B680122062B80F8242015D8026803EBA9
:100F40008303A3F1050E1F23D2F834C003FA0EF475
:100F50000B682CEA040C03FA0EF444EA0C04546304
:100F6000092B17D937E000BF02680C2B20D803EB00
:100F70008303A3F123041F23D2F830C003FA04FE35
:100F80000B682CEA0E0C03FA04F444EA0C04146314
:100F9000092B20D8D2F810C003EB4303072489683B
:100FA0009C402CEA0404994021431161002136E061
:100FB00003EB8303A3F141041F23D2F82CC003FAEF
:100FC00004FE0B682CEA0E0C03FA04F444EA0C0449
:100FD000D462092BDED903EB4304D2F80CC0A4F190
:100FE0001E0E0724896804FA0EF42CEA040401FAA0
:100FF0000EF1214323F00104102CD1600ED142F2F6
:101000000841C4F20101A1F10804A2420ED0816A94
:1010100041F020018162012101E000BF0021002296
:1010200080F82420084601B010BD00BF0A681202F3
:1010300030D40A68102B42F400020A602CD140F22E
:101040000801C2F2000109684DF68362C4F21B3246
:10105000A1FB0212910C01EB810149000091009962
:10106000E1B10099013900910099C9B100990139A4
:1010700000910099B1B1009901390091009999B19D
:10108000009901390091009900294FF00001E8D141
:10109000C5E700BF0021C2E70021C0E70021BEE78D
:1010A0000021BCE70021BAE70021B8E77047000043
:1010B00070470000704700000068C06C7047000077
:1010C00010B5044600684168890644BF01685FEABC
:1010D00081710BD44168090644BF01685FEA417120
:1010E0002AD4416849065BD410BD00BFA16AC90675
:1010F00003D4A16A41F40071A162816801F4602106
:10110000B1F5602F10D1217B71B9416821F0200128
:101110004160A06A20F48070A062A06AC00403D479
:10112000A06A40F00100A0622046FFF7BFFF2068E0
:101130006FF012010160CDE7A16AC90603D4A16A6C
:1011400041F40051A162816801F4E041B1F5E04F42
:1011500010D1416821F080014160A06A20F48050E4
:10116000A062A06AC00511D4A06A40F00100A0628C
:101170000CE000BF4168490508D4816801F4602192
:10118000B1F5602F02D1217B0029E2D02046FFF784
:10119000C1FE20686FF00C01016041684906A3D5CB
:1011A0000068C00708BF10BDA06A40F48030A0628C
:1011B000204600F0B3F820686FF00101016010BD17
:1011C000B0B5002800F0A8800446806A20B12168EC
:1011D0008868C0070BD114E00020E06284F8240086
:1011E000204600F09DF821688868C00709D088680B
:1011F00020F00100886000F08DFD21688A68D20728
:1012000026D1A06AC0063AD4A06A41F202129043E5
:101210000230A062E069D4E9013240EA030C531EB7
:10122000B3FA83F35D091346B2F5807F18BF2B0232
:10123000207D257B01284CEA450030D135B3A56AD5
:1012400045F02005A562E56A45F00105E56226E066
:10125000054602E08868C007D3D000F05BFD401B64
:1012600021680328F6D38868C007F3D0A06A40F04D
:101270001000A062E06A40F00100E062A06AA06A8B
:1012800040F01000A0620120B0BD00BFD4F818C02B
:101290004EF60005CFF6FF7505EB4C352B434D6838
:1012A000B2F5807F25F4694543EA05034B608B68FE
:1012B0004FF2FD75CFF6E17503EA050343EA00033B
:1012C0008B6001D0012A07D122690023CFF6F07389
:1012D00003EB025201E000BF0022CB6A23F470034B
:1012E0001A43CA62896840F6FE62CFF61F72114047
:1012F000814207D10020E062A16A012262F301016C
:10130000A162B0BDA06A40F0100020F00200A0620F
:10131000E06A40F00100E0620120B0BD70470000CB
:1013200070B586B0044640F60000C4F201002168A2
:1013300000F5E052002691420596049602D006B0D0
:1013400070BD00BF41F21801C4F202010A6842F404
:1013500000720A600A6802F400720192019A0A6837
:1013600042F004020A60096801F004010191019948
:101370000321CDE9021102A900F0BCFB40F21C15CB
:101380000820C2F20005C4F202004FF48072C5E9E1
:10139000000605F1100080214FF480634FF0200C0F
:1013A00080E80C102846C5E90261EE6100F004FBFC
:1013B000002818BFFFF7A8FD122000210022256297
:1013C0006C6200F025FD122000F012FD06B070BD29
:1013D000F0B581B000270D460446009700F09AFC56
:1013E00021688A68D20543D406464868C00503D4FC
:1013F000C86A10F4700F45D040F20800C2F2000035
:101400000768022000F040FD216844F624130A69B1
:10141000B7FBF0F0C2F292431A4206D1CA6844F612
:101420002413C0F292031A425ED00A6942F2924338
:10143000C1F249231A4207D1CA6842F29243C0F26C
:1014400049031A4200F0C0800A6949F24923C0F2F8
:1014500024031A424FF0FC0257D1CF681F4208BF45
:101460005422009B02FB00F7BB4253D3C3E000BFF2
:10147000A06A40F02000A06284F82470012001B02E
:10148000F0BD00BF0868800700F1B580681C00F05F
:10149000A880FDB90868800772D50868800700F148
:1014A000AA80086880076BD50868800700F1A380D0
:1014B0000868800764D50868800700F19C80086888
:1014C00080075DD508688007E4D594E00868800748
:1014D00000F1918000F01EFC801B2168A842F5D924
:1014E00008688007F2D44BE00A6942F29243C1F2E5
:1014F00049231A424FF0290207D1CB6842F29247A2
:10150000C0F249073B4208BF1422009B02FB00F7D0
:10151000BB4270D2681C4FD055BB0098B8422FD345
:101520000098013000900098B84264D20098B84208
:1015300026D30098013000900098B8425BD2009802
:10154000B8421DD30098013000900098B84252D2A2
:101550000098B84214D30098013000900098B84227
:10156000DBD348E00098013000900098B84233D2B5
:1015700000F0D0FB801BA842F4D90098B842F1D209
:10158000A06A40F00400A062002084F82400032038
:1015900001B0F0BD0098013000900098B8422AD206
:1015A0000098013000900098B84224D20098013091
:1015B00000900098B8421ED2009801300090009828
:1015C000B842E7D317E000BF5422009B02FB00F7AC
:1015D000BB429FD30FE000BF21680CE00868800782
:1015E00009D40868800706D4086880075CBF0868CB
:1015F0005FEA8070F2D56FF012000860A06A40F4D4
:101600000070A062886800F46020B0F5602F01D1FE
:10161000207B18B1002001B0F0BD00BFA06A20F40B
:101620008070A062A06AC004F4D4A06A40F00100F7
:10163000A062002001B0F0BD10B5044690F824006F
:10164000012804BF022010BD012084F82400204698
:10165000FFF76EFA20B1002184F8241010BD00BFFE
:1016600042F2044C2068A16AC4F2010C40F201323B
:1016700091430CF57F7201F580719042A16233D0E5
:10168000A16A21F48011A1624168490504D5A16ACB
:10169000012363F30D31A162A16A0023C9044FF055
:1016A000000144BFE16A21F00601E1626FF002012E
:1016B00084F824300160816801F46021B1F5602F65
:1016C00006D190420AD1DCF8001011F4702F05D039
:1016D000816841F480118160002010BD816841F46F
:1016E000A0018160002010BDDCF8001011F4702F03
:1016F000C6D0A16A41F48011A162DCF8001049054E
:10170000C5D4C9E770B515460446006842F6000224
:10171000C4F2010290420E4605D042F20041C4F2EA
:101720000101884209D142F20440C4F2010000687C
:1017300010F4702F1CBF012070BD94F82400012804
:1017400004BF022070BD012084F824002046FFF76A
:10175000EFF918B1002184F8241070BD42F2044062
:101760002168A26AC4F2010040F601739A4300F5B1
:101770007F7302F580729942A26243D0A06A20F47E
:101780008010A0624868400504D5A06A012262F377
:101790000D30A062A26A0020D2044FF0000244BFC4
:1017A000E26A22F00602E26284F82400206A40F62F
:1017B000BD22C0F6000240F6293340F6113C00F18C
:1017C000280EC0F60003C0F6000C8EE80C106FF077
:1017D00002020A608A682B4642F480728A604C31A9
:1017E000324600F025F92068816801F460228168A2
:1017F000B2F5602F0CBF41F4A00141F4801181606B
:10180000002070BD026812F4702FB7D0A26A42F4B3
:101810008012A26200684005BCD5B6E710B5D0E9D9
:101820000FCE0168DCF800300A6823FA0EF35C077B
:101830002AD512F0040427D00A68920603D40A6855
:1018400022F004020A602F22C4F20202914240F206
:101850000402C4F2020259DD3023C4F202039942A9
:1018600070D04423C4F20203994271D05823C4F2C9
:101870000203994278D14FF480231360C16A002992
:1018800040F097806EE000BF9C0727D512F002045D
:1018900024D00A68920606D40A6822F00A020A6076
:1018A000012280F821202F22C4F20202914240F24C
:1018B0000402C4F2020239DD3023C4F20203994269
:1018C0005ED04423C4F2020399425DD05823C4F28F
:1018D000020399425ED14FF4003363E01B0741D508
:1018E00012F0080208BF10BD0A6822F00E020A605A
:1018F000012101FA0EF2CCF804208163016B4FF450
:1019000080720029028454D12CE000BF0823C4F265
:101910000203994222D01C23C4F20203994223D12C
:1019200040231360C16A002943D11BE00823C4F29D
:10193000020399422CD01C23C4F20203994229D1FC
:1019400020232FE04FF480631360C16A89BB09E054
:101950004FF480431360C16A59BB03E00423136052
:10196000C16A31BB10BD00BF02F168044FF0806353
:10197000A14208BF4FF480031360C16AC9B9F1E7FF
:101980004FF400730EE000BF4FF400530AE000BFB5
:10199000022307E002F168044FF00073A14208BF80
:1019A0004FF400131360816A0022002980F8202080
:1019B000D8D0BDE810400847002804BF0120704778
:1019C0002DE9F04101684FF6F872CBF6FD724CF646
:1019D000CD430A44CCF6CC43A2FB03236FF00307AC
:1019E00007EA93030027C4F2020700F1040E00F196
:1019F0001008C0E90F739EE8045098E870010B6866
:101A000043F6F077BB431A4342EA0C0242EA0E0265
:101A100022432A43324342EA08020A6000214FF47B
:101A2000807281630284BDE8F0410846704700007F
:101A3000F0B590F820C0BCF1010F32D090F821C071
:101A40004FF0010EBCF1010F80F820E026D14FF0DD
:101A5000020C80F821C04FF0000CC0F838C0D0E96B
:101A600000C4C56AC66BDCF80070102C27F00107B3
:101A7000CCF80070006C0EFA00F070600846CCF8EC
:101A8000043004BF10460A46CCF80800CCF80C20FD
:101A9000DCF8000045B140F00E000DE0002180F8B8
:101AA00020100220F0BD00BF20F00400CCF80000A0
:101AB000DCF8000040F00A00CCF80000DCF8000080
:101AC00040F00100CCF800000020F0BDB0B50446A5
:101AD00000F020F9054640F20000C2F20000007854
:101AE000611C18BF044400BF00F014F9401BA04261
:101AF000FAD3B0BD2DE9F04F82B041F20042C4F2FA
:101B000001020E680423904208BF0323002E0093B5
:101B100000F0F68040F20C4E4FF6FF7CC4F2010E4E
:101B200000220124C1F2100C4FF0000A4FF000090E
:101B300043E000BF012502F00C040F27A7402BEA69
:101B4000070705FA04F43C4343F82640D1F804B0F3
:101B500040F20045C4F201055FEACB332B6854BF65
:101B600023EA080343EA08032B606B685FEA8B34BF
:101B700054BF23EA080343EA08036B605FEACB24FF
:101B8000AB6854BF23EA080343EA08035FEA8B24E7
:101B9000AB60DEF800304FF0010454BF23EA0803C5
:101BA00043EA0803CEF800300E680AF1010A36FA5B
:101BB0000AF302F1040200F0A38004FA0AF816EA1C
:101BC000080FF1D04B68634512DC122B56D8DFE8C2
:101BD00003F0350B454955555555555555555555F2
:101BE0005555554D510000BFD1F80C9046E000BF4F
:101BF0004FF6FF77C1F22107BB420FDC0027C1F28D
:101C00001107BB421AD00027C1F21207BB4215D000
:101C10000027C1F22107BB4210D02FE00027C1F2FC
:101C20002207BB420AD00027C1F23107BB4205D0D0
:101C30000027C1F23207BB4220D100BF8B684BB1F5
:101C4000012B14BFC0F81480C0F810804FF00809B1
:101C500014E000BF4FF0040910E000BFCB6803F1AF
:101C600008090BE04FF0000908E000BFCB6803F162
:101C7000040903E0CB6803F10C0900BF13460546D5
:101C8000BAF1080F24BF203B04352E680F279F4070
:101C9000BE4309FA03F333432B60CB79DB067FF5B0
:101CA00083AF41F21804C4F2020423684FEA9A0693
:101CB00043F001032360236840F6000403F00103AE
:101CC0000193019B40F20043C4F20103A3F57E732C
:101CD00053F826B0C4F20104A0420FD040F60044ED
:101CE000C4F20104A0423FF425AF41F20004C4F263
:101CF0000104009DA04208BF02251CE700251AE749
:101D000002B0BDE8F08F0000002A08BF090401619D
:101D10007047000040F2A810C2F20000006870474F
:101D200040F2000040F2A811C2F20000C2F200012D
:101D300000780A68104408607047000080B542F2DD
:101D40000000C4F20200016841F0100101600320AC
:101D500000F08AF80F2000F005F800F027F80020C6
:101D600080BD000070B540F20006C2F2000640F2ED
:101D700008013278C2F200014FF47A730968B3FBAC
:101D8000F2F20446B1FBF2F1084600F049FC0F2CD8
:101D90004FF0010508D838B94FF0FF302146002236
:101DA000002500F035F87460284670BD82B041F21D
:101DB0001800C4F202000168022241F00101016032
:101DC000016801F0010101910199416841F08051E0
:101DD0004160406800F08050009000980420C4F2F8
:101DE0000100016862F31A61016002B070470000EF
:101DF000002848BF704700F01F01012202FA01F1DC
:101E00004EF200124009CEF2000242F82010704754
:101E100010B54EF60C5CCEF2000CDCF80030C3F3CB
:101E2000022E8EF00704042C28BF0424BEF1030305
:101E30004FF0FF3E0EFA04F438BF0023A14399404F
:101E40000EFA03F39A43114300F00F02043A62447E
:101E500009010C3200F16043B0F1FF3FC8BF03F548
:101E60006442117010BD00004EF60C51CEF200011C
:101E70000A684FF6FF031A4060F30A2242F08060BE
:101E800040F0FD700860704780B5012818D0022826
:101E900036D0102832D141F20401C4F202010A689E
:101EA00051F8040CC00129D5C2F383402DA3185C5E
:101EB000D2033DD440F60012C0F23D02504343E04D
:101EC00041F20400C4F20200C16940F202320A4049
:101ED000B2F5817F04BF4FF4004080BD01F4407132
:101EE000B1F5407F1CD0B1F5007F07D1006A49F6FB
:101EF0004041800701EAE07080BD00BF002080BD46
:101F000000F0A0F941F20401C4F2020109680222C2
:101F1000C1F3813102EB4101B0FBF1F080BD00BFA4
:101F200050F8040C4FF22441800301EAE07080BDB8
:101F30000A6810A3C2F340429A5C41F20023C0F247
:101F40007A03B3FBF2F250430968490248BF80BDEF
:101F50004AF6AB214000CAF6AA21A0FB01014808BD
:101F600080BD00BF02030405060708090A0B0C0D1B
:101F70000E0F1010010200002DE9F04182B004465E
:101F8000007841F21C06C007C4F202064AD030684D
:101F900010F0805808D1306840F0805030603068D0
:101FA00000F080500190019847F20007C4F200074A
:101FB0003868C00512D4386840F480703860FFF784
:101FC000A9FE05463868C00508D4FFF7A3FE401BEC
:101FD0006428F7D9032002B0BDE8F081706810F4DE
:101FE000407012D0616801F4407188420DD0706871
:101FF00040F24042C4F24222012320F440711360B7
:102000000023C007136071602AD17068616820F4F2
:1020100040700843B8F1000F706003D1306820F0C1
:10202000805030602068810707D556F8181CA268D8
:1020300021F44041114346F8181CC00604D4002086
:1020400002B0BDE8F08100BF56F8180CE16820F43A
:102050008000084346F8180C002002B0BDE8F0816B
:10206000FFF758FE054641F2883700BF70688007C9
:10207000CBD4FFF74FFE401BB8424FF00300F5D919
:10208000EBE700002DE9F04381B0002800F08580E7
:1020900042F20008C4F202080446D8F800000D46D7
:1020A00000F0070088420CD2D8F8000020F00700AA
:1020B0002843C8F80000D8F8000000F00700A84244
:1020C0006BD1206841F204098107C4F2020917D5D7
:1020D000410705D5D9F8001041F4E061C9F80010B6
:1020E000010705D5D9F8001041F46051C9F8001076
:1020F000D9F80010A26821F0F0011143C9F80010CE
:10210000C00741D1D8F8000000F00700A8420CD960
:10211000D8F8000020F007002843C8F80000D8F8DD
:10212000000000F00700A84237D12068410707D51A
:10213000D9F80010E26821F4E0611143C9F80010F9
:10214000000708D5D9F80000216920F4605040EA62
:10215000C100C9F80000D9F8002002F00C000828DE
:1021600041F20020C0F27A0050D143F63A63C2F344
:102170008341C0F60003595CD2033BD440F6001003
:10218000C0F23D00484341E0606802280AD00128BF
:102190002AD159F8041C890308D4012001B0BDE8F4
:1021A000F08300BF59F8041C8901F6D5D9F8001056
:1021B00021F003010843C9F80000FFF7ABFD064614
:1021C00041F28837D9F80000616800F00C00B0EBEC
:1021D000810F97D0FFF79EFD801BB842F2D90320F4
:1021E00001B0BDE8F08300BF59F8041C8907D4D5BD
:1021F000DCE700BFD9F8002043F62063C2F3404279
:10220000C0F600039A5C4843B0FBF2F0D9F8001026
:1022100043F62262C1F30311C0F60002515C40F2A2
:10222000080220FA01F140F20400C2F20000006846
:10223000C2F200021160FFF795FD002001B0BDE879
:10224000F083000040F2080041F20401C2F20000F5
:10225000C4F202010068096843F63262C1F3C22188
:10226000C0F60002515CC840704700002DE9F04103
:1022700082B0002868D00446007841F20006C0070A
:10228000C4F2020625D0706800F00C0004281BD0B0
:10229000706800F00C00082802D17068C00313D4E5
:1022A0006068002800F06881B0F5A02F00F07C8104
:1022B000B0F5803F00F07C81306820F480303060E1
:1022C000306820F4802076E13068800301D56068B2
:1022D000D0B32078800718D5706810F00C0F07D0A5
:1022E000706800F00C0008286ED17068C0036BD4D1
:1022F0003068800702D52069012825D130686169DE
:1023000020F0F80040EAC1003060207800071FD4B8
:102310002078400732D4E56995B1706800F00C0070
:10232000082840F08F80012D0ED07068216A00F4DB
:1023300080328A4208D1616A00F47010884203D169
:10234000002002B0BDE8F081012002B0BDE8F081BC
:10235000A069002862D00020C4F242200121C0F808
:102360008014FFF7D7FC0546706A800700F18C8067
:10237000FFF7D0FC401B0228F6D92AE1F06910F0E3
:10238000805808D1F06940F08050F061F06900F0A9
:1023900080500090009847F20007C4F200073868A8
:1023A000C00529D4386840F480703860FFF7B2FC6B
:1023B000054600BF3868C0051ED4FFF7ABFC401BC4
:1023C0006428F7D905E100BF2069002840F2000029
:1023D000C4F2422000F0828001210160FFF79AFCE4
:1023E000054600BF306880073FF588AFFFF792FCD5
:1023F000401B0228F6D9ECE0E068002800F080805D
:10240000052800F09780012800F09880306A20F0BD
:1024100001003062306A20F0040092E00020C4F233
:1024200042200021C0F88014FFF774FC054600BF6D
:10243000706A80077FF56CAFFFF76CFC401B0228C9
:10244000F6D9C6E00027C4F2422700203866FFF71D
:1024500061FC022D05460BD13068800140F1BE8041
:10246000FFF758FC401B02284FF00300F4D968E73F
:10247000306880017FF564AFFFF74CFC401B0228F9
:102480004FF00300F4D95CE740F20800C2F200000C
:10249000006844F6D351C1F26201A0FB0101480A71
:1024A000019000BF00BF0198411E002801913FF438
:1024B0002FAF00BF0198411E002801913FF428AFC3
:1024C00000BF0198411E002801913FF421AF00BFD9
:1024D0000198411E00280191E4D119E70021016013
:1024E000FFF718FC054600BF306880077FF50DAF89
:1024F000FFF710FC401B02284FF00300F4D920E73F
:10250000306A20F001003062306A20F0040030624E
:10251000FFF700FC054641F2883700BF306A8007AC
:1025200020D5FFF7F7FB401BB8424FF00300F5D969
:1025300007E700BF306A40F004003062306A40F0C4
:1025400001003062FFF7E6FB054641F2883700BF25
:10255000306A800706D4FFF7DDFB401BB842F7D98D
:1025600037E000BFB8F1000F7FF4D5AEF06920F07E
:102570008050F061CFE600BF306820F480303060DA
:10258000306820F480203060FFF7C4FB054600BFB0
:10259000306880037FF59DAEFFF7BCFB401B6428CD
:1025A0004FF00300F4D9CCE6306840F4802030606E
:1025B000306840F480303060FFF7ACFB054600BF68
:1025C000306880033FF585AEFFF7A4FB401B64280D
:1025D000F6D9032002B0BDE8F08100BF206AB0F553
:1025E000803F05D17168A26821F400311143716008
:1025F0007168626A21F4741110430843706001200D
:102600003866FFF787FB0446306880013FF598AED7
:10261000FFF780FB001B02284FF00300F4D990E67F
:10262000411E0020B0EB116F1CBF012070474EF21D
:102630001002CEF2000251604EF62351CEF200019C
:10264000F0230B7007219060116070477047000005
:102650007047000010B590F83C20012A4FF00202AC
:1026600033D080F83D200268D2F804E0D2F808C0E8
:102670000C682EF07003234340F2FF74C4F2000490
:10268000A24253600ADCB2F1804F13D040F2004303
:10269000C4F200039A420DD011E000BF42F600439D
:1026A000C4F201039A4205D040F60003C4F20003CD
:1026B0009A4204D149682CF08003194391600121AA
:1026C000002280F83D1080F83C20104610BD00002C
:1026D000002804BF0120704710B5044690F83D0063
:1026E00028B9002084F83C00204600F067F802205A
:1026F00084F83D00206840F2FF730268C4F20003D2
:1027000042F6004C9842C4F2010C15DCB0F1804F47
:102710001AD040F20041C4F20001884214D098421D
:1027200018DCB0F1804F1DD040F20041C4F200012E
:10273000884217D01AE000BF604505D040F600017E
:10274000C4F200018842EAD1A16822F070020A4373
:102750009842E6DD604505D040F60001C4F2000174
:10276000884203D1216922F440720A43A36922F00E
:102770008001D4F804E0E268194360450160C26258
:10278000C0F828E002D16169CCF830100121416124
:10279000002084F8461084F83E1084F83F1084F836
:1027A000401084F8411084F8421084F8431084F8F3
:1027B000441084F8451084F83D1010BD80B582B0F7
:1027C0000068B0F1804F1CBF02B080BD41F21C0018
:1027D000C4F202000168002241F0010101600068BA
:1027E000002100F00100019001981C20FFF710FB70
:1027F0001C2002B0BDE88040FFF7FABA80B590F81F
:102800003C20012A4FF0020200F0BF8080F83D20FA
:10281000D0F800C04FF67772DCF8083023EA0202E5
:10282000CCF808200B683F2B1CDD5F2B20DD602BD4
:1028300050D0B3F5005F6DD0702B40F0A080D1E98F
:1028400001E3C968DCF8082043EA0E0322F47F4262
:1028500043EA01211143CCF80810DCF8081041F0DC
:1028600077018AE01F2B29DC63B3102B2AD086E086
:10287000402B63D0502B40F08280D1F804E0C9682F
:10288000DCF82030DCF8202022F00102CCF82020F7
:10289000DCF8182022F0F00242EA011123F00A02CB
:1028A00042EA0E02CCF81810CCF82020DCF8081010
:1028B00041F0570121F020015FE000BF202B01D043
:1028C000302B5CD1DCF8081021F07001194341F085
:1028D000070152E0D1F804E0C968DCF8203023F0A9
:1028E0001003CCF82030DCF81830DCF8202023F47A
:1028F000704322F0A00243EA013142EA0E12CCF802
:102900001810CCF82020DCF8081041F0670121F005
:10291000100132E0D1E901E3C968DCF8082043EA9C
:102920000E0322F47F4243EA01211143CCF8081040
:10293000DCF8081041F480411FE000BFD1F804E04A
:10294000C968DCF82030DCF8202022F00102CCF845
:102950002020DCF8182022F0F00242EA011123F0D6
:102960000A0242EA0E02CCF81810CCF82020DCF85B
:10297000081041F0470121F03001CCF80810012186
:10298000002280F83D1080F83C20104680BD0000F9
:102990007047000010B5016804460869800744BF0D
:1029A000C8685FEA807039D40869400744BFC868C6
:1029B0005FEA40703ED40869000744BFC8685FEA18
:1029C000007045D40869C00644BFC8685FEAC060AB
:1029D0004AD40869C0071CBFC8685FEAC07051D1FB
:1029E0000869000644BFC8685FEA006052D40869FD
:1029F000400644BFC8685FEA406053D40869800657
:102A000046BFC8685FEA806010BD6FF020022046B4
:102A10000A61BDE81040FFF71BBE00BF6FF0020067
:102A20000861012020778869800743D02046FFF79E
:102A3000AFFF45E06FF0040008610220207788694D
:102A400010F4407F40D02046FFF7A2FF42E000BFD5
:102A50006FF00800086104202077C86980073DD026
:102A60002046FFF795FF3FE06FF010000861082057
:102A70002077C86910F4407F3AD02046FFF788FFDE
:102A80003CE000BF6FF001000861204600F03EF816
:102A90002168A5E76FF0800008612046FFF7D6FDAA
:102AA0002168A4E76FF040000861204600F030F88C
:102AB0002168A3E7204600F025F8204600F024F81E
:102AC0002168002020776FE7204600F01BF82046A1
:102AD00000F01AF82168002020776CE7204600F00B
:102AE00011F8204600F010F821680020207769E7EF
:102AF000204600F007F8204600F006F82168002084
:102B0000207766E7704700007047000070470000BC
:102B100070470000FEE70000FEE70000FEE700004F
:102B20007047000070470000FFF7FAB870470000D8
:102B300040F26010C2F20000FFF72CBFFEE7000079
:102B4000A0B0FFF7FBF816AC201D2421FDF7E3FB36
:102B50000220169001201A90102000251B9020467C
:102B60000F95CDE90D551D95FFF780FB20B1EFF3D3
:102B7000108072B6FEE700BF0F20CDE9100510A847
:102B80000021CDE912551495FFF77CFA20B1EFF33F
:102B9000108072B6FEE700BF022700260CA80C9733
:102BA0000E96FFF7E9F928B1EFF3108072B600BF77
:102BB000FEE700BF41F21805C4F20205286840F69E
:102BC000000840F0040028602868C4F2010800F002
:102BD000040016901698286808F5806A40F00800EE
:102BE000286028684FF4784100F008001690169885
:102BF000504600224FF47844FFF786F840464FF4E1
:102C0000F85100224FF4F859FFF77EF8169416ACED
:102C10004FF0010B50462146CDE917B61997FEF744
:102C200069FF40462146CDE9169BCDE91867FEF7BE
:102C300061FF55F8040C002140F0010045F8040C38
:102C400055F8040C002200F00100169016980B2095
:102C5000FFF7DEF80B20FFF7CBF840F27009C2F265
:102C6000000908F5E051484640F8241F4FF48071F0
:102C70004FF4602206730675C261C0E90161076105
:102C8000FEF79EFA20B1EFF3108072B6FEE700BFA8
:102C90000020CDE9160B072009F12404189016A98D
:102CA0002046FEF739F928B1EFF3108072B600BF65
:102CB000FEE700BF012016900220179016A92046BB
:102CC000FEF72AF920B1EFF3108072B6FEE700BFDD
:102CD00040F260100021C2F2000041F287371991E2
:102CE000CDE91711CDE910114FF0804240F23F635A
:102CF000C0E9021701618021C0E900238161FFF76B
:102D0000E7FC28B1EFF3108072B600BFFEE700BF0A
:102D10004FF48050169040F26010C2F2000016A9E5
:102D2000FFF76CFD20B1EFF3108072B6FEE700BF35
:102D300040F26010C2F2000010A9FFF78BFC28B12E
:102D4000EFF3108072B600BFFEE700BF4FF4806063
:102D50004FF4007140F2C405CDE908180A904FF411
:102D600080704FF400414FF400624FF48053C2F280
:102D70000005CDE90038CDE9022ACDE90418069016
:102D80002846102102224346CDF81C80FDF72EFF75
:102D900009F1100120460222FEF7B4FC46F26668F3
:102DA00040F2000A4FF6006B43F64A66C4F20A0886
:102DB000C4F2590AC4F2AF0B09F11407C0F60006B9
:102DC00035E000BFB9F804004CF6CD414843000D92
:102DD000A9F8040000F050FE4FF06632434600F0C0
:102DE0005FFE0022534600F05BFE00225B4600F0CF
:102DF000E9FC00F0B5FCC9F80C00284600210122CE
:102E0000FDF76AFF284658A1FEF758F8D9F80C00DC
:102E100000F044FF02460B4638463146FDF7E0F924
:102E200028463946FEF74AF86420FEF74FFE204652
:102E3000FEF702FC20466421FEF7CAFA2046FEF7A0
:102E40003BF9B9F80210A9F8100008440022A9F8CB
:102E50000200322089F80020FEF738FE99F80000C1
:102E60000130C1B2132989F8000011D8B9F8100057
:102E7000B9F802100844A9F802003220FEF726FE35
:102E800099F800000130C1B2142989F80000EDD38F
:102E9000B9F802004CF6CD414843000DA9F80200F4
:102EA00000F0EAFD4FF06632434600F0F9FD0022E3
:102EB000534600F0F5FD00225B4600F083FC00F075
:102EC0004FFCC9F80800284600210022FDF704FF46
:102ED000284624A1FDF7F2FFD9F8080000F0DEFE35
:102EE00002460B4638463146FDF77AF92846394600
:102EF000FDF7E4FF6420FEF7E9FD2046FEF79CFBAA
:102F000020466421FEF764FA2046FEF7D5F8B9F8AA
:102F10000410A9F8120008440022A9F80400322085
:102F200089F80020FEF7D2FD99F800000130C1B207
:102F3000132989F800003FF645AF00BFB9F8120029
:102F4000B9F804100844A9F804003220FEF7BEFDC9
:102F500099F800000130C1B2142989F80000EDD3BE
:102F600030E700BF54313A0054323A005FEA400C77
:102F700008BF91F0000F4FEA8C234FEAC12243EAC9
:102F800051514FEA1C5018BF00F5F0404FEA300095
:102F900018BF41F000415FEA6C5C00F02980BCF191
:102FA000FF3F08BF40F080407047130C06BF12047B
:102FB0004FF0100C4FF0000C130E04BF12020CF176
:102FC000080C130F04BF12010CF1040C930F04BF83
:102FD00092000CF1020CD30F04BF52000CF1010C53
:102FE00011464FF00002A0F11F00A0EB0C0070474B
:102FF00011F0004F08BF704731F000413FF4D5AFEA
:103000000B0C06BF09044FF0100C4FF0000C0B0E18
:1030100004BF09020CF1080C0B0F04BF09010CF1ED
:10302000040C8B0F04BF89000CF1020CCB0F04BF02
:1030300049000CF1010CCCF1200322FA03F341EA20
:10304000030102FA0CF2A0EB0C0000F10100704742
:1030500023F07F4720F07F4C80EA030000F000401F
:10306000ACEB070303F57C5303F1FF032DE9804923
:1030700009B44FEA144324EA03484FEA154B25EA02
:103080000B4E0FF2042606EB13273E7803FB066770
:10309000C7F5000707FB06F64FEAD64606F102061B
:1030A0004FEA543707FB066CCCF1005C4FEA1C4733
:1030B0002CEA074C0CFB06F507FB06F404EB15465F
:1030C0004FEA961649085FEA320234BF00204FF0FB
:1030D00000404FEAD13706FB07FC4FEA1C4C0CFBC3
:1030E0000BF7D21B03FB0CF761EB07010CFB0EF790
:1030F000B0EB074072EB17420CFB08F734BFA2EBB2
:103100000742B2EB074261EB17414FEA0C444FEA2A
:10311000910706FB07FC4FEA1C4C0CFB0BF7B0EBCE
:10312000C74072EB573203FB0CF734BFA2EBC74228
:10313000B2EBC74261EB57310CFB0EF7B0EBC700A7
:1031400072EB57720CFB08F734BFA2EBC702B2EB6D
:10315000C70261EB57714FEA816141EA92114FEA70
:10316000826242EA90124FEA806004EBCC04039F33
:103170004FEAD13706FB07FC4FEA1C4C0CFB0BF760
:10318000D21B03FB0CF761EB07010CFB0EF7B0EB56
:10319000074072EB17420CFB08F734BFA2EB074263
:1031A000B2EB074261EB17414FEA8C5504EB9C24CC
:1031B0004FEA910706FB07FC4FEA1C4C0CFB0BF790
:1031C000B0EBC74072EB573203FB0CF734BFA2EBF6
:1031D000C742B2EBC74261EB57310CFB0EF7B0EBC5
:1031E000C70072EB57720CFB08F734BFA2EBC702A3
:1031F000B2EBC70261EB57714FEA816141EA92116C
:103200004FEA826242EA90124FEA806015EB4C2549
:1032100044F100044FEAD13706FB07FC4FEA1C4C8F
:103220000CFB0BF7D21B03FB0CF761EB07010CFB4C
:103230000EF7B0EB074072EB17420CFB08F734BFF8
:10324000A2EB0742B2EB074261EB17414FEA813133
:1032500041EA92414FEA823242EA90424FEA80309C
:103260004FEA0C7615EB1C1544F1000448EA0343C1
:103270004EEA0B484FF0000EB2EB080C71EB03075F
:1032800024BF624639464EEB0E0E4FF0000B00187D
:10329000524149414BEB0B0BB2EB080C71EB0307AE
:1032A0007BF1000B24BF624639464EEB0E0E4FF009
:1032B000000B0018524149414BEB0B0BB2EB080CD1
:1032C00071EB03077BF1000B24BF624639464EEBDE
:1032D0000E0E51EA020718BF46F0010616EB0E76F5
:1032E00055F1000254F1000103D5BDE88901BDE8A4
:1032F0000088BDE88901BDE80048B619524141EB9C
:103300000101A3F10103704780807F7E7D7C7B7A81
:103310007978777676757473727171706F6E6E6D81
:103320006C6C6B6A6A696868676666656464636327
:1033300062616160605F5F5E5E5D5D5C5C5B5B5AAD
:103340005A5959585857575656555555545453531A
:1033500052525251515050504F4F4F4E4E4D4D4D75
:103360004C4C4C4B4B4B4A4A4A49494948484847C0
:1033700047474746464645454544444444434343FE
:1033800043424242424141419C46002B30D47700A7
:103390002BD04FEA37071CB503B44FF010004FF0A5
:1033A0001001BAF1000F06D0BCF1000FDCBF40F0F5
:1033B000080040F008014FF000000FBCBDE81040CD
:1033C0000BF1010BBBF1010F08BF5FEA170722BF2A
:1033D00012F1010211F101014FF0004143F100032C
:1033E00000F0004043EA00007047F9D35708D0E7E7
:1033F00046EA06464FEA164613F1400F1FDD13F169
:10340000200FDFBF16430A46002120335B42BED0A7
:10341000C3F1200746EA06464FEA164602FA07F7C6
:1034200046EA070622FA03F2C3F1200701FA07F77A
:1034300042EA070221FA03F14FF00003A7E746EA48
:10344000020646EA06464FEA164646EA0106BCBFB1
:1034500046EA0646360C4FF000034FF000024FF0EC
:10346000000194E72DE9804C70B49A46934691E8A8
:10347000380007C831EA400C48BF34EA430C03D592
:10348000FFF7E6FDFFF780FFF0BCBDE8008C2DE9FB
:10349000804C70B49A46934691E8380007C810F003
:1034A000804F08BF13F0804F03D100F005F8FFF7FD
:1034B0006BFFF0BCBDE8008C20F07F4723F07F4C11
:1034C00080EA030000F0004007EB0C03A3F57C53F7
:1034D000A3F1FE0392F0000F00F0B38095F0000F0F
:1034E00000F077802DE901494FEA114021EA0048B8
:1034F0004FEA144624EA064700FB06FC08FB06F6E2
:1035000007FB08F818EB06484CEB164C00FB07F7D6
:1035100018EB07484CEB17404FEA124B22EA0B4ED0
:103520004FEA154625EA06470BFB06FC0EFB06F69E
:1035300007FB0EFE1EEB064E4CEB164C0BFB07F783
:103540001EEB074E4CEB174B18EB0B0840F100003D
:1035500018EB0E0B58EB000840F100008F1A4FF0EB
:1035600000014FF000063CBFC943661B14BFB5EB1A
:10357000040C00213CBFC943F61B4FEA174427EA5D
:1035800004454FEA1C472CEA074C04FB076205FB85
:1035900007F70CFB05F616EB074642EB174204FB58
:1035A0000CFC16EB0C4642EB1C421BEB060658EBE0
:1035B000020241414EEA8E0E46EA9E0601D5BDE862
:1035C0000189B619524141EB0101A3F10103BDE8A4
:1035D00001894FEA144524EA05464FEA114721EADA
:1035E000074C05FB07F406FB07F70CFB06F111EB94
:1035F000074144EB174405FB0CFC11EB0C4144EB79
:103600001C444FEA124722EA074C05FB07F206FB6F
:1036100007F70CFB06F616EB074642EB174205FBD5
:103620000CFC16EB0C4642EB1C456A1854F10001E9
:1036300048BF7047B619524141EB0101A3F10103A4
:10364000704795F0000F37D04FEA114221EA024649
:103650004FEA144724EA074C02FB07F106FB07F781
:103660000CFB06F414EB074441EB174102FB0CFC86
:1036700014EB0C4441EB1C414FEA154725EA074C7B
:1036800002FB07F506FB07F70CFB06F616EB0746F1
:1036900045EB174502FB0CFC16EB0C4645EB1C42B8
:1036A000121951F1000148BF7047B619524141EB60
:1036B0000101A3F1010370474FEA144524EA0546CE
:1036C0004FEA114721EA074C05FB07F106FB07F714
:1036D0000CFB06F212EB074241EB174105FB0CFC19
:1036E00012EB0C4251EB1C414FF0000648BF7047F3
:1036F000921841EB0101A3F101037047490050EA20
:10370000C12018BF04204A0D18BF40F0010040F24C
:10371000FF72B2EB515F08BF40F00200012808BF02
:103720000520704730380A2801D201207047002058
:103730007047000010B500290AD00878002807D08B
:1037400005487844FDF76CF9002801D0002010BD31
:103750000248784410BD00002E0700002607000034
:1037600021F0004201F00043A2F16052B2F5801F47
:1037700028BFD2F17F6C0BD95FEA001C43EAC2027A
:1037800042EB507018BF704728BF20F0010070470F
:10379000B2F5801FBCBF184670474FEA410C1CF5BC
:1037A000001F02D2084600F0EABA70B500F022FA13
:1037B00000000089FFF7F6BF4FF00040A0F5800041
:1037C000704700002DE9C04130B4DFF8A4C23CEAE4
:1037D000111418BF3CEA131400F0ED801CEA111418
:1037E00081EA030544EAD57418BF1CEA131500F0FA
:1037F000C880A4EB050404F17F7404F500344FF095
:10380000004545EAC12145EAC32341EA505143EA54
:1038100052534FEAC0204FEAC222994208BF904259
:1038200000F09D804FEA13650FF24416765D4FEA73
:10383000134506FB05F7C7F1807706FB07F74FEA4C
:10384000D737A7FB03687642A7FB06CEC8F58038BA
:1038500038BFA8F1010807FB08E6A6FB028C4FF071
:10386000000EE6FB03CEDCF1000CCEF1004E38BFBB
:10387000AEF1010EA6FB0C584FF00007E6FB0E87D9
:10388000A1FB08C6A0FB07CE16EB0E064FF0000505
:1038900045F10005E1FB076515F1E04E7EBFA4F59B
:1038A00080345FEA46066D4116F1800745F1000558
:1038B0004FEA172747EA05674FEA15254FEA0666DC
:1038C000A6F1DE46B6F1805F20D9384605EBC4711B
:1038D00024F0010C01EB0C11BCF1FE6F02D8F0BC1E
:1038E000BDE8008124425CBF01F5801E9EEAC47FD2
:1038F00002D4F0BCBDE80081244200F13980A1F17E
:10390000C041F0BCBDE8004100F0C2B94FEAD02090
:1039100040EA41504FEAD1214FEAD22242EA4352D3
:103920004FEAD323A7FB028607FB036605FB02666B
:103930001EEA0E0F58BFA6EB0056B6EB00564FEA34
:10394000520E4EEAC37E18EB0E0E56EB530EBCD54C
:1039500018EB02085E417F1C55F10005B5E74FF4F6
:1039600080154FF000074FF000064FF00008ACE75D
:1039700001F1C04101F000414FF00000F0BCBDE892
:1039800000810CEA131511EA0C1F00D00CE013EAB9
:103990000C1F00F026804FF0000081EA030101F0C7
:1039A0000041F0BCBDE80081F0BCBDE8004181EA07
:1039B000030100F06DB9F0BCBDE8004170B500F046
:1039C00019F900BF097EFC3E00F007B84FF0000077
:1039D00081EA030101F00041704781EA030100F030
:1039E00057B9F0BCBDE8004122494FF000007047D4
:1039F000FFFDFBF9F7F5F4F2F0EEEDEBE9E8E6E4B4
:103A0000E3E1E0DEDDDBDAD8D7D5D4D3D1D0CFCD3A
:103A1000CCCBCAC8C7C6C5C4C2C1C0BFBEBDBCBB73
:103A2000BAB9B8B7B6B5B4B3B2B1B0AFAEADACAB6E
:103A3000AAA9A8A8A7A6A5A4A3A3A2A1A09F9F9E48
:103A40009D9C9C9B9A9999989797969595949393FA
:103A5000929191908F8F8E8E8D8C8C8B8B8A898991
:103A60008888878786858584848383828281818014
:103A70000000FF070000F87FB0FA80F310FA03F1AE
:103A80000AD0C3F11D0303F580634FEA03524FEAE6
:103A9000415002EBD12170474FF000007047000009
:103AA00070B5DFF848C11CEA111E1EBF1CEA1315D1
:103AB0009EEA0C0F95EA0C0F00F06F8081EA030478
:103AC0004EEAD47EAE4421EA4C1123EA4C1341F471
:103AD000801143F48013AEF17F7EA1FB024CA0FB6A
:103AE0000365361955EB0C05A1FB034C4CF10003A3
:103AF000A0FB021C16EB0C06654153F100030942C2
:103B000018BF46F0010613F4007F0BD14FEA0331D2
:103B10004FEA053041EA155140EA165034036FF080
:103B200003020AE04FEAC3214FEAC52041EA55519A
:103B300040EA5650F4026FF0020202EB2E4201EB13
:103B4000025585EACE710AD05FEA440C18BF24F012
:103B5000004450F1000041F1000120EAD47040F22D
:103B6000FE7C624500D270BDA84214BF4FF0804475
:103B70004FF04044002E08BF0024BEF1806FA8BF64
:103B8000A1F1C041BDE8704080F2828001F1C041E6
:103B900001F000414FF0000070470CEA13159EEA57
:103BA0000C0F18BF95EA0C0F06D081EA030E4FF0F8
:103BB00000000EF0004170BD00F01CF88900013ECD
:103BC00000F007B800F009B84FEA430C5FEA5C5C0C
:103BD00008D081EA030100F05BB84FEA410C5FEACC
:103BE0005C5CF6D102494FF0000070470000FF070F
:103BF0000000F87F0EF1020E2EF0030E5EF8046B4B
:103C0000364205D4012A43EB030515F5001F12D8EF
:103C1000012841EB010C1CF5001F0CD80ED14FEA16
:103C2000D17C0CEB4C0C0CF1020C15F5001F08BFFD
:103C30004CEBD37C04E04FF0080C01E04FEAD37C5E
:103C40000CEB4C0526FA05F606F00706B6F1040C57
:103C500006D20EEB860CBDE870404CF0010C6047BC
:103C6000DFE80CF0090B02024FF00041A1F5002142
:103C70004FF0000070BD19461046012851EB0104B9
:103C800018BFD4F5001484BF002001F0004170BDBE
:103C90000808A0F500114FEA3101704743004FEAD0
:103CA000D30C4FEA3C0C43401FBF40070CF160515E
:103CB00013F0FE4F70471CF0006F03D10CF0004171
:103CC000002070470CF0004343EA507040EACC00FB
:103CD00010B500F00EF800BF000000924FEA00019E
:103CE000FFF7D6BF4FF00041A1F500214FF00000D3
:103CF00070470EF1020E2EF0030E5EF8044B2442C4
:103D000004D44FEA4102B2F17F4F11D84FEA400389
:103D1000B3F17F4F0CD80ED14FEAD07C0CEB4C0C9A
:103D20000CF1020CB2F17F4F08BF4CEBD17C04E0E8
:103D30004FF0080C01E04FEAD17C0CEB4C0324FA65
:103D400003F404F00704B4F1040C06D20EEB840C67
:103D5000BDE810404CF0010C6047DFE80CF00708AC
:103D600002024FF00040A0F5800010BD084642005E
:103D700018BFD2F1807288BF00F0004010BDFF2153
:103D800041EAD050C0057047FCF7C7BB02400000B5
:103D9000000000A00000000005400000000000C876
:103DA000000000000C4000000000409C00000000EB
:103DB000194000000020BCBE00000000344000009C
:103DC000BFC91B8E00000004B5400000504BCFD08F
:103DD0006607E2CF010000006C4100003E8251AA5C
:103DE000DFEEA73401000000D9420000DCB5A0E2FC
:103DF0003A301F97FFFFFFFFB4450000FD25A0C824
:103E0000E9A3C14FFFFFFFFFFF3F0000000000805C
:103E100000000000FF3F00000000008000000000E4
:103E20000102000000000000000001020304060778
:103E3000080900000000010203040203040506074C
:103E400008090A0B0C0D0E0F1010252E326600000B
:103E5000903E00080000002010000000280100082B
:103E6000A03E000810000020A00700004401000848
:103E70001C00000043000000F8FFFFFF0C000000E2
:103E80000E0000000F0000002E00000000000000E7
:103E900001000000100000000024F40000000000F9
:04000005080000ED02
:00000001FF
