:020000040800F2
:10000000C006002089010008251100081D11000804
:1000100021110008910200084511000800000000AD
:100020000000000000000000000000002D1100088A
:100030009502000800000000291100083111000895
:10004000A3010008A3010008A3010008A301000800
:10005000A3010008A3010008A3010008A3010008F0
:10006000A3010008A3010008A3010008A3010008E0
:10007000A3010008A3010008A3010008A3010008D0
:10008000A3010008A3010008A3010008A3010008C0
:10009000A3010008A3010008A3010008A3010008B0
:1000A000A3010008A3010008A3010008A3010008A0
:1000B00039110008A3010008A3010008A3010008EA
:1000C000A3010008A3010008A3010008A301000880
:1000D000A3010008A3010008A3010008A301000870
:1000E000A3010008A3010008A301000800F002F822
:1000F00000F03AF80AA090E8000C82448344AAF188
:100100000107DA4501D100F02FF8AFF2090EBAE885
:100110000F0013F0010F18BFFB1A43F0010318473B
:100120008C110000AC110000103A24BF78C878C1CF
:10013000FAD8520724BF30C830C144BF04680C60ED
:10014000704700000023002400250026103A28BF35
:1001500078C1FBD8520728BF30C148BF0B60704739
:100160001FB51FBD10B510BD00F058F81146FFF7C0
:10017000F7FF00F0E9FF00F076F803B4FFF7F2FFB5
:1001800003BC00F07DF8000009488047094800479B
:10019000FEE7FEE7FEE7FEE7FEE7FEE7FEE7FEE737
:1001A000FEE7FEE704480549054A064B7047000094
:1001B00035110008ED000008C0000020C006002036
:1001C000C0020020C00200204FF0000200B513461C
:1001D00094469646203922BFA0E80C50A0E80C5067
:1001E000B1F12001BFF4F7AF090728BFA0E80C5018
:1001F00048BF0CC05DF804EB890028BF40F8042B11
:1002000008BF704748BF20F8022B11F0804F18BF7D
:1002100000F8012B7047704770477047754600F033
:100220002BF8AE4605006946534620F00700854688
:1002300018B020B5FFF7B6FFBDE820404FF000062C
:100240004FF000074FF000084FF0000BAC46ACE851
:10025000C009ACE8C009ACE8C009ACE8C00921F0AD
:1002600007018D46704710B50446AFF30080204665
:10027000BDE81040FFF781BF004870471000002024
:1002800001491820ABBEFEE72600020070470000BF
:10029000FEE70000704700002DE9F04F82B041F208
:1002A0000042C4F201020E680423904208BF0323F7
:1002B000002E009300F0F68040F20C4E4FF6FF7CCB
:1002C000C4F2010E00220124C1F2100C4FF0000A0A
:1002D0004FF0000943E000BF012502F00C040F2796
:1002E000A7402BEA070705FA04F43C4343F82640ED
:1002F000D1F804B040F20045C4F201055FEACB3307
:100300002B6854BF23EA080343EA08032B606B6899
:100310005FEA8B3454BF23EA080343EA08036B60A7
:100320005FEACB24AB6854BF23EA080343EA08031F
:100330005FEA8B24AB60DEF800304FF0010454BF5D
:1003400023EA080343EA0803CEF800300E680AF1F6
:10035000010A36FA0AF302F1040200F0A38004FA5B
:100360000AF816EA080FF1D04B68634512DC122B2D
:1003700056D8DFE803F0350B4549555555555555C9
:10038000555555555555554D510000BFD1F80C9058
:1003900046E000BF4FF6FF77C1F22107BB420FDCFA
:1003A0000027C1F21107BB421AD00027C1F2120781
:1003B000BB4215D00027C1F22107BB4210D02FE06D
:1003C0000027C1F22207BB420AD00027C1F2310741
:1003D000BB4205D00027C1F23207BB4220D100BF8B
:1003E0008B684BB1012B14BFC0F81480C0F810808B
:1003F0004FF0080914E000BF4FF0040910E000BFFF
:10040000CB6803F108090BE04FF0000908E000BFDA
:10041000CB6803F1040903E0CB6803F10C0900BFCA
:1004200013460546BAF1080F24BF203B04352E6859
:100430000F279F40BE4309FA03F333432B60CB7968
:10044000DB067FF583AF41F21804C4F2020423688F
:100450004FEA9A0643F001032360236840F6000444
:1004600003F001030193019B40F20043C4F2010336
:10047000A3F57E7353F826B0C4F20104A0420FD056
:1004800040F60044C4F20104A0423FF425AF41F21B
:100490000004C4F20104009DA04208BF02251CE72D
:1004A00000251AE702B0BDE8F08F0000002A08BF5F
:1004B000090401617047000040F2BC00C2F2000074
:1004C0000068704740F2000040F2BC01C2F2000038
:1004D000C2F2000100780A6810440860704700000A
:1004E00080B542F20000C4F20200016841F0100140
:1004F0000160032000F08AF80F2000F005F800F0FA
:1005000027F8002080BD000070B540F20006C2F25E
:10051000000640F208013278C2F200014FF47A730B
:100520000968B3FBF2F20446B1FBF2F1084600F0B1
:1005300037FB0F2C4FF0010508D838B94FF0FF30CA
:1005400021460022002500F035F87460284670BD71
:1005500082B041F21800C4F202000168022241F0A8
:1005600001010160016801F00101019101994168F7
:1005700041F080514160406800F080500090009848
:100580000420C4F20100016862F31A61016002B044
:1005900070470000002848BF704700F01F0101228B
:1005A00002FA01F14EF200124009CEF2000242F8C6
:1005B0002010704710B54EF60C5CCEF2000CDCF843
:1005C0000030C3F3022E8EF00704042C28BF04244D
:1005D000BEF103034FF0FF3E0EFA04F438BF0023D0
:1005E000A14399400EFA03F39A43114300F00F021E
:1005F000043A624409010C3200F16043B0F1FF3F5C
:10060000C8BF03F56442117010BD00004EF60C51D6
:10061000CEF200010A684FF6FF031A4060F30A2287
:1006200042F0806040F0FD70086070472DE9F043B3
:1006300081B0002800F0858042F20008C4F2020870
:100640000446D8F800000D4600F0070088420CD29E
:10065000D8F8000020F007002843C8F80000D8F8B8
:10066000000000F00700A8426BD1206841F20409A5
:100670008107C4F2020917D5410705D5D9F8001042
:1006800041F4E061C9F80010010705D5D9F8001060
:1006900041F46051C9F80010D9F80010A26821F0A7
:1006A000F0011143C9F80010C00741D1D8F800008B
:1006B00000F00700A8420CD9D8F8000020F007008D
:1006C0002843C8F80000D8F8000000F00700A8424E
:1006D00037D12068410707D5D9F80010E26821F426
:1006E000E0611143C9F80010000708D5D9F80000EF
:1006F000216920F4605040EAC100C9F80000D9F82F
:10070000002002F00C00082841F20020C0F27A001C
:1007100050D141F29A23C2F38341C0F60003595CE1
:10072000D2033BD440F60010C0F23D00484341E004
:10073000606802280AD001282AD159F8041C8903CC
:1007400008D4012001B0BDE8F08300BF59F8041CB3
:100750008901F6D5D9F8001021F003010843C9F842
:100760000000FFF7A9FE064641F28837D9F80000DD
:10077000616800F00C00B0EB810F97D0FFF79CFE92
:10078000801BB842F2D9032001B0BDE8F08300BF5E
:1007900059F8041C8907D4D5DCE700BFD9F800203C
:1007A00041F28823C2F34042C0F600039A5C4843FA
:1007B000B0FBF2F0D9F8001041F28A22C1F3031124
:1007C000C0F60002515C40F2080220FA01F140F24A
:1007D0000400C2F200000068C2F200021160FFF7DC
:1007E00093FE002001B0BDE8F08300002DE9F04148
:1007F00082B0002868D00446007841F20006C007A5
:10080000C4F2020625D0706800F00C0004281BD04A
:10081000706800F00C00082802D17068C00313D47F
:100820006068002800F06881B0F5A02F00F07C819E
:10083000B0F5803F00F07C81306820F4803030607B
:10084000306820F4802076E13068800301D560684C
:10085000D0B32078800718D5706810F00C0F07D03F
:10086000706800F00C0008286ED17068C0036BD46B
:100870003068800702D52069012825D13068616978
:1008800020F0F80040EAC1003060207800071FD453
:100890002078400732D4E56995B1706800F00C000B
:1008A000082840F08F80012D0ED07068216A00F476
:1008B00080328A4208D1616A00F47010884203D104
:1008C000002002B0BDE8F081012002B0BDE8F08157
:1008D000A069002862D00020C4F242200121C0F8A3
:1008E0008014FFF7E9FD0546706A800700F18C80EF
:1008F000FFF7E2FD401B0228F6D92AE1F06910F06B
:10090000805808D1F06940F08050F061F06900F043
:1009100080500090009847F20007C4F20007386842
:10092000C00529D4386840F480703860FFF7C4FDF2
:10093000054600BF3868C0051ED4FFF7BDFD401B4B
:100940006428F7D905E100BF2069002840F20000C3
:10095000C4F2422000F0828001210160FFF7ACFD6B
:10096000054600BF306880073FF588AFFFF7A4FD5C
:10097000401B0228F6D9ECE0E068002800F08080F7
:10098000052800F09780012800F09880306A20F058
:1009900001003062306A20F0040092E00020C4F2CE
:1009A00042200021C0F88014FFF786FD054600BFF5
:1009B000706A80077FF56CAFFFF77EFD401B022851
:1009C000F6D9C6E00027C4F2422700203866FFF7B8
:1009D00073FD022D05460BD13068800140F1BE80C9
:1009E000FFF76AFD401B02284FF00300F4D968E7C7
:1009F000306880017FF564AFFFF75EFD401B022881
:100A00004FF00300F4D95CE740F20800C2F20000A6
:100A1000006844F6D351C1F26201A0FB0101480A0B
:100A2000019000BF00BF0198411E002801913FF4D2
:100A30002FAF00BF0198411E002801913FF428AF5D
:100A400000BF0198411E002801913FF421AF00BF73
:100A50000198411E00280191E4D119E700210160AD
:100A6000FFF72AFD054600BF306880077FF50DAF10
:100A7000FFF722FD401B02284FF00300F4D920E7C6
:100A8000306A20F001003062306A20F004003062E9
:100A9000FFF712FD054641F2883700BF306A800734
:100AA00020D5FFF709FD401BB8424FF00300F5D9F0
:100AB00007E700BF306A40F004003062306A40F05F
:100AC00001003062FFF7F8FC054641F2883700BFAD
:100AD000306A800706D4FFF7EFFC401BB842F7D915
:100AE00037E000BFB8F1000F7FF4D5AEF06920F019
:100AF0008050F061CFE600BF306820F48030306075
:100B0000306820F480203060FFF7D6FC054600BF37
:100B1000306880037FF59DAEFFF7CEFC401B642854
:100B20004FF00300F4D9CCE6306840F48020306008
:100B3000306840F480303060FFF7BEFC054600BFEF
:100B4000306880033FF585AEFFF7B6FC401B642894
:100B5000F6D9032002B0BDE8F08100BF206AB0F5ED
:100B6000803F05D17168A26821F4003111437160A2
:100B70007168626A21F474111043084370600120A7
:100B80003866FFF799FC0446306880013FF598AE5F
:100B9000FFF792FC001B02284FF00300F4D990E607
:100BA000411E0020B0EB116F1CBF012070474EF2B8
:100BB0001002CEF2000251604EF62351CEF2000137
:100BC000F0230B70072190601160704770470000A0
:100BD0007047000010B590F83C20012A4FF0020247
:100BE00033D080F83D200268D2F804E0D2F808C083
:100BF0000C682EF07003234340F2FF74C4F200042B
:100C0000A24253600ADCB2F1804F13D040F200439D
:100C1000C4F200039A420DD011E000BF42F6004337
:100C2000C4F201039A4205D040F60003C4F2000367
:100C30009A4204D149682CF0800319439160012144
:100C4000002280F83D1080F83C20104610BD0000C6
:100C5000002804BF0120704710B5044690F83D00FD
:100C600028B9002084F83C00204600F067F80220F4
:100C700084F83D00206840F2FF730268C4F200036C
:100C800042F6004C9842C4F2010C15DCB0F1804FE2
:100C90001AD040F20041C4F20001884214D09842B8
:100CA00018DCB0F1804F1DD040F20041C4F20001C9
:100CB000884217D01AE000BF604505D040F6000119
:100CC000C4F200018842EAD1A16822F070020A430E
:100CD0009842E6DD604505D040F60001C4F200010F
:100CE000884203D1216922F440720A43A36922F0A9
:100CF0008001D4F804E0E268194360450160C262F3
:100D0000C0F828E002D16169CCF8301001214161BE
:100D1000002084F8461084F83E1084F83F1084F8D0
:100D2000401084F8411084F8421084F8431084F88D
:100D3000441084F8451084F83D1010BD80B582B091
:100D40000068B0F1804F1CBF02B080BD41F21C00B2
:100D5000C4F202000168002241F001010160006854
:100D6000002100F00100019001981C20FFF722FCF7
:100D70001C2002B0BDE88040FFF70CBC90F83D108D
:100D800001291CBF01207047022180F83D10006836
:100D900040F2FF72C168C4F20002904241F00101CA
:100DA000C16009DCB0F1804F12D040F20041C4F2C2
:100DB000000188420CD012E042F60041C4F2010169
:100DC000884205D040F60001C4F20001884206D1F5
:100DD000816801F00701062904BF002070470168FF
:100DE00041F00101016000207047000080B590F8DB
:100DF0003C20012A4FF0020200F0BF8080F83D2025
:100E0000D0F800C04FF67772DCF8083023EA02020F
:100E1000CCF808200B683F2B1CDD5F2B20DD602BFE
:100E200050D0B3F5005F6DD0702B40F0A080D1E9B9
:100E300001E3C968DCF8082043EA0E0322F47F428C
:100E400043EA01211143CCF80810DCF8081041F006
:100E500077018AE01F2B29DC63B3102B2AD086E0B0
:100E6000402B63D0502B40F08280D1F804E0C96859
:100E7000DCF82030DCF8202022F00102CCF8202021
:100E8000DCF8182022F0F00242EA011123F00A02F5
:100E900042EA0E02CCF81810CCF82020DCF808103A
:100EA00041F0570121F020015FE000BF202B01D06D
:100EB000302B5CD1DCF8081021F07001194341F0AF
:100EC000070152E0D1F804E0C968DCF8203023F0D3
:100ED0001003CCF82030DCF81830DCF8202023F4A4
:100EE000704322F0A00243EA013142EA0E12CCF82C
:100EF0001810CCF82020DCF8081041F0670121F030
:100F0000100132E0D1E901E3C968DCF8082043EAC6
:100F10000E0322F47F4243EA01211143CCF808106A
:100F2000DCF8081041F480411FE000BFD1F804E074
:100F3000C968DCF82030DCF8202022F00102CCF86F
:100F40002020DCF8182022F0F00242EA011123F000
:100F50000A0242EA0E02CCF81810CCF82020DCF885
:100F6000081041F0470121F03001CCF808100121B0
:100F7000002280F83D1080F83C20104680BD000023
:100F80007047000010B5016804460869800744BF37
:100F9000C8685FEA807039D40869400744BFC868F0
:100FA0005FEA40703ED40869000744BFC8685FEA42
:100FB000007045D40869C00644BFC8685FEAC060D5
:100FC0004AD40869C0071CBFC8685FEAC07051D125
:100FD0000869000644BFC8685FEA006052D4086927
:100FE000400644BFC8685FEA406053D40869800681
:100FF00046BFC8685FEA806010BD6FF020022046DF
:101000000A61BDE81040FFF7E3BD00BF6FF00200CA
:101010000861012020778869800743D02046FFF7C8
:10102000AFFF45E06FF00400086102202077886977
:1010300010F4407F40D02046FFF7A2FF42E000BFFF
:101040006FF00800086104202077C86980073DD050
:101050002046FFF795FF3FE06FF010000861082081
:101060002077C86910F4407F3AD02046FFF788FF08
:101070003CE000BF6FF001000861204600F03EF840
:101080002168A5E76FF0800008612046FFF79EFD0C
:101090002168A4E76FF040000861204600F03CF8AA
:1010A0002168A3E7204600F025F8204600F024F848
:1010B0002168002020776FE7204600F01BF82046CB
:1010C00000F01AF82168002020776CE7204600F035
:1010D00011F8204600F010F821680020207769E719
:1010E000204600F007F8204600F006F821680020AE
:1010F000207766E770470000704700000068B0F195
:10110000804F18BF704740F27000C2F200000168C3
:10111000013101607047000070470000FEE70000E9
:10112000FEE70000FEE70000704700007047000087
:10113000FFF7C8B97047000040F27400C2F2000027
:10114000FFF720BFFEE7000090B0FFF7C9F906AC3B
:10115000201D2421FFF738F80220069001200A9074
:1011600010200B90002520460D95FFF73FFB28B17E
:10117000EFF3108072B600BFFEE700BF0F20CDE98D
:10118000000568460021CDE902550495FFF74EFAA7
:1011900020B1EFF3108072B6FEE700BF41F21800F5
:1011A000C4F20200016840F6000441F0040101604D
:1011B0000068C4F2010400F004000690069820467E
:1011C000FF210022FF250027FFF770F90120CDE95C
:1011D00007070220099006A920460695FFF75CF84C
:1011E00040F27006C2F200064FF08041304640F8EF
:1011F000041F40F23F6141F28732C0E901178021AC
:101200000997CDE90777CDE90077C0E90327816128
:10121000FFF71EFD20B1EFF3108072B6FEE700BFAE
:101220004FF48050351D069006A92846FFF7DEFDD5
:1012300020B1EFF3108072B6FEE700BF6946284682
:10124000FFF7C8FC20B1EFF3108072B6FEE700BFD5
:101250002846FFF793FD2046FF210122FFF726F9DC
:10126000002500BF3068012804D12046FF2100225C
:10127000FFF71CF930680328F4D12046FF21012232
:10128000FFF714F93560EDE70102000000000000EF
:10129000000001020304060708090203040506070B
:1012A00008090A0B0C0D0E0F10100000D0120008D8
:1012B000000000201000000028010008E0120008D3
:1012C00010000020B00600004401000800000000EB
:1012D00001000000100000000024F40000000000E5
:04000005080000ED02
:00000001FF
