:020000040800F2
:1000000018070020A1010008ED210008E5210008E3
:10001000E9210008750B000801220008000000001B
:10002000000000000000000000000000F5210008B2
:10003000910E000800000000F1210008F9210008DD
:10004000BB010008BB010008BB010008BB010008A0
:10005000BB010008BB010008BB010008950E0008A9
:10006000BB010008BB010008BB010008BB01000880
:10007000BB010008BB010008BB010008BB01000870
:10008000BB010008BB010008B10A0008BB01000861
:10009000BB010008BB010008BB010008BB01000850
:1000A000BB010008BB010008BB010008BB01000840
:1000B000BB010008BB010008BB010008BB01000830
:1000C000BB010008BB010008BB010008BB01000820
:1000D000BB010008BB010008BB010008BB01000810
:1000E000BB010008BB010008BB01000800F002F8DA
:1000F00000F047F80AA090E8000C82448344AAF17B
:100100000107DA4501D100F03CF8AFF2090EBAE878
:100110000F0013F0010F18BFFB1A43F0010318473B
:100120006032000080320000103A24BF78C878C1E5
:10013000FAD8520724BF30C830C144BF04680C60ED
:10014000704700000023002400250026103A28BF35
:1001500078C1FBD8520728BF30C148BF0B60704739
:10016000662903F0AB80002070471FB500F02AFB22
:1001700004000020002102F073FDE0601FBD10B5F7
:1001800010BD00F01FFC1146FFF7EFFF02F03AF838
:1001900000F03DFC03B4FFF7F2FF03BC00F080FC6D
:1001A0000948804709480047FEE7FEE7FEE7FEE70B
:1001B000FEE7FEE7FEE7FEE7FEE7FEE70448054947
:1001C000054A064B70470000FD210008ED000008BD
:1001D0001801002018070020180300201803002031
:1001E0000FB41CB5074B06AA7B44694600900598DE
:1001F00000F0CFFA0020694600F0DEFA1CBC5DF882
:1002000014FB0000CD0500002DE9F0474FF0000A77
:1002100089460446C0F820A02046E16888470028A7
:1002200076D0252806D0D4E901219047206A401CC9
:100230002062F1E7E168204600258847C4F81CA049
:1002400006460027C4F818A02A2E09D0304602F02E
:10025000FFFC38B304EB8708303EC8F8186019E09B
:1002600059F8041B204604EB87029161E168884736
:10027000012F064618D1E069002820DA25F0200574
:100280001DE0D8F8180000EB800006EB4000303885
:10029000C8F818002046E1688847064602F0D8FCF6
:1002A0000028EED1012F0AD02E2E08D12046E16879
:1002B00088477F1C0646022F45F02005C4DBA06955
:1002C000002803DA404245F00105A061E80701D0AB
:1002D00025F01005B6B1A6F14100192802D8203644
:1002E00045F400654A463146204625604D46FFF7F5
:1002F00037FF58B1012806D0ED1D25F0070000F1A9
:10030000080989E704E005F1040985E730468AE732
:10031000206ABDE8F0874FF0000200B5134694460E
:100320009646203922BFA0E80C50A0E80C50B1F14D
:100330002001BFF4F7AF090728BFA0E80C5048BF61
:100340000CC05DF804EB890028BF40F8042B08BFFF
:10035000704748BF20F8022B11F0804F18BF00F8FB
:10036000012B70477047704770472DE9FF4F0C46CF
:100370001E464FF0FF378BB0D2E90001DDF86080F8
:100380000A908A46C1F30A5505B93D460021084640
:100390004FF00000BAF1000F00F4400005DA00EB66
:1003A00080004FF4400101EA50004FEA9059B9F142
:1003B000010F00DDB9460A9850EA4A000ED044F613
:1003C0001050A5F2FF3545432F14B8F1000F1ED091
:1003D0007542291E1EDDC9F100021CE0B8F1010FB3
:1003E0004FF0000001D0302103E0F24305E021543A
:1003F000401CB042FBDB30460022002121540B9907
:10040000C1F80880C1E900200FB0BDE8F08FBD1B26
:100410006D1CDEE74A4600DA694206A800F05CFA85
:1004200006AB93E8070003AB83E8070050460A9940
:1004300002F032F88DE80700A0F500501F38009058
:100440000398002D0ADD42F21F014A4608440023AA
:1004500003A90390684602F09BFA09E0A0F500505A
:100460004A461F38002303A90390684602F0A5FA04
:100470008DE807000004000C03D04FF0FF30410866
:1004800000E01046B8F1000F03D00022009215469C
:100490001EE0751E05D400F099F9303262556D1ECC
:1004A000F9D5B3460122084302D000227F1C04E0A4
:1004B0002078302801D100227F1E002A099784D09D
:1004C0001DE0112D07DA00F081F9303262556D1C04
:1004D00050EA0102F5D1084302D00098C8B10EE0FD
:1004E0000021681E05E0235C625C63542254401EB8
:1004F000491C8142F7DBAB46A81B401E0990002037
:1005000004F80B000B98099AC0F80880C0E9002B8A
:100510007AE711264FF0000857E72DE9F04F88469B
:100520000446D21D22F0070191B0D1E90001CDE9C6
:100530000A0102F079FB02460B98C00F01D02D2072
:1005400007E02068810701D52B2002E0202101EA85
:10055000C000032A099001D0072A05DB0346414663
:10056000204600F079F90BE12078800601D5E0699A
:1005700000E00620B8F1650F814606D0B8F1660F9D
:1005800018D0B8F1670F70D131E00020B9F1110F28
:10059000009001DB112301E009F101030AAA01A97E
:1005A0000CA8FFF7E2FEDDE90C70002609F1010559
:1005B000834647E001204B4600904FF000470AAACF
:1005C00001A90CA8FFF7D1FEDDE90DB00C995D463D
:1005D000002610B909F101000D18B9EB050003D48C
:1005E000C0F1FF3609F10105A5EB09002BE0B9F1D7
:1005F000010F01DA4FF001090020B9F1110F00904D
:10060000484601DD112300E003460AAA01A90CA80F
:10061000FFF7ABFEDDE90C704D46002683462078DF
:1006200000070AD4AB4500DA5D4601A8012D04DDC0
:10063000411911F8011C302907D04F4502DA17F192
:10064000040F04DA012082460FE06D1EEEE7002F52
:1006500002DCED1B3E4403E0781CA84200DD7D1C5B
:10066000B81B00F1010A4FF000472078000703D4BF
:10067000AA4501DB4FF0FF3A0021B7F1004F0DF121
:1006800043088DF8431024D002202B23002F01DAD9
:100690007F422D230A21021EA0F1010000DC5FB180
:1006A00097FBF1FC97FBF1F201FB1C7C17460CF168
:1006B000300C08F801CDEEE7A8F1010003702188A5
:1006C000090501D5452100E06521A0F1010800F8E8
:1006D000011C09980FA9A1EB0807FF1D00B101201B
:1006E000411901EBEA70A1693844081A401EA06163
:1006F0002078C00602D42046AFF30080099828B1C4
:10070000D4E901219047206A401C20622078C0066D
:1007100022D52046AFF300801EE0002E04DBB34557
:1007200002DD01A8805D00E03020D4E9012190477E
:10073000206A401C2062761CAAF101005FEA000AD0
:100740000AD100F03FF8C0680168405CD4E901219B
:100750009047206A401C2062281EA5F10105DCDCC0
:1007600007E0D4E9012118F8010B9047206A401CEA
:100770002062381EA7F10107F3DC2046AFF30080AA
:10078000032011B041E6000001694A1C02610878AB
:10079000704700B58FB0CDE90131002105910549C1
:1007A0007944CDE9031011466846FFF72DFD0FB0DF
:1007B00000BD0000E5FFFFFF0A6802F8010B0A60B8
:1007C00070470000004870473000002030B5B0F19D
:1007D0000A0271F100034FEA900E4EEA817EB0EBFF
:1007E0000E0061EB91014FEA101E4EEA017E10EB04
:1007F0000E0041EB11114FEA102E4EEA016E10EB84
:100800000E0041EB11214FEA104E4EEA014E10EB63
:100810000E0041EB1141401841F100014FEAD000B8
:1008200040EA41704FEAD1014FEA810444EA9074F2
:1008300010EB800544EB01046D1944EB0404521BDA
:10084000A3414FF0000348BF0A3200D530BD401C21
:1008500041F1000130BD00002DE9F0411F46044682
:1008600003260168072A01F4006004DB08B116A51D
:1008700005E016A503E008B115A500E015A521F0D7
:1008800010002060A069C01EA0610FB1401EA061D1
:100890002046AFF300804FB1D4E90121384690479C
:1008A000206A401C2062C01C206206E0206AFAE731
:1008B000D4E9012115F8010B9047761EF8D22046A5
:1008C000AFF30080BDE8F0814E414E006E616E00D6
:1008D000494E4600696E66002DE9F047814616468E
:1008E0008AB0354878440DC88DE80D003248784408
:1008F000801C03AC0DC884E80D0041F69B30084411
:10090000372190FBF1F290FBF1F5A5F1800501FB99
:1009100012041B3C02D56442012000E00020DFF8F5
:1009200098A080460027FA44AAF1BE0A0EE0E0072C
:100930000AD03246684607EB470101230AEB8101E2
:1009400002F03BF88DE8070064107F1C002CEED10C
:10095000194F7F44AE3F19E0E80715D007EB0410AC
:100960000DF1180A90E80E008AE80E00C068F04207
:1009700001D1981908903246012306A903A802F074
:100980001CF803AB83E807006D10641C002DE3D155
:100990004FF0010332466946B8F1000F03A802D0B8
:1009A00001F0F6FF01E002F008F8C9E90001C9F81A
:1009B00008200AB0BDE8F087542A000000487047BC
:1009C000100000207546FFF7F9FFAE4605006946A6
:1009D000534620F00700854618B020B5FFF7EEFB20
:1009E000BDE820404FF000064FF000074FF0000830
:1009F0004FF0000BAC46ACE8C009ACE8C009ACE86D
:100A0000C009ACE8C00921F007018D46704710B558
:100A10000446AFF300802046BDE81040FFF7BABBA4
:100A20004FF0013C50F8042B51F8043B9A4221D17D
:100A3000A2EB0C03934313EACC1317D150F8042B09
:100A400051F8043B9A4215D1A2EB0C03934313EAED
:100A5000CC130BD150F8042B51F8043B9A4209D126
:100A6000A2EB0C03934313EACC13DBD04FF000004E
:100A7000704700BFD01A01BAB1FA81F101F0180134
:100A800022FA01F0CB40DBB2C0B2C01AC1F12001A2
:100A90002CFA01F3D11A914311EAC311E6D1704740
:100AA00001491820ABBEFEE7260002007047000097
:100AB00040F28800C2F2000000F0C2BAB0B582B0C5
:100AC00004460020019021688A68D2074FD18868C7
:100AD00040F00100886040F20800C2F200000068A7
:100AE0004DF68361C4F21B31A0FB0101880C01901B
:100AF0000198A0B1019801380190019878B101984E
:100B000001380190019850B1019801380190019885
:100B100028B101980138019001980028EAD100F02D
:100B2000C5FE21688968C9071CD1054603E000BFDE
:100B30008068C0071AD100F0B9FE411B2068032964
:100B4000F6D38168C907F3D1A06A40F01000A06213
:100B5000E06A40F00100E062002084F824000120F7
:100B600002B0B0BD002002B0B0BD00BF002002B096
:100B7000B0BD0000FEE700002DE9F04F8BB00293FE
:100B8000044626980DF1500E0A90259817460990B4
:100B900024988846089023980DF1680A07902298B7
:100BA0004FF0100B069021980590209804901F9804
:100BB00003901E9801909EE80F50DDF874909AE81B
:100BC000600420810198A77020860398029F6063CB
:100BD000049884F800B02087059884F80180E063C9
:100BE00006986760A4F840000798E1606064089880
:100BF0002282A4F8480009986361E0640A98A4F886
:100C000018C0A4F850003220C4F81CE025846662A5
:100C1000A4F828A0C4F82C9000F016FD40F6064079
:100C2000C3F61400C4F8520020460621002200F04A
:100C3000BBF894F853102046002200F0B5F894F861
:100C400054102046002200F0AFF894F855102046CA
:100C5000002200F0A9F820460121002200F0A4F8AB
:100C60002046022100220BB0BDE8F04F00F09CB8F6
:100C700080B5437890F802E08B4290F800C098BFAE
:100C8000591E964598BFAEF10102D2B20CA39A5CF0
:100C9000BCF1000F11440BD0BCF1100F18BF80BD88
:100CA00041F08001C9B20022BDE8804000F07CB86C
:100CB00041F08001C9B20022BDE8804000F002B8D6
:100CC00000401454B0B504460D4640682189002AFE
:100CD00018BF012200F0E4FD606B218FC5F3001204
:100CE00000F0DEFDE06BB4F84010C5F3401200F0F8
:100CF000D7FD606CB4F84810C5F3801200F0D0FD49
:100D0000E06CB4F85010EA0900F0CAFDE068218AEE
:100D1000002200F0C5FD012000F096FCE068218A69
:100D2000012200F0BDFD012000F08EFCE068218A68
:100D3000002200F0B5FD012000F086FC606B218FE1
:100D400005F0010200F0ACFDE06BB4F84010C5F313
:100D5000400200F0A5FD606CB4F84810C5F38002B5
:100D600000F09EFDE06CB4F85010C5F3C00200F036
:100D700097FDE068218A002200F092FD012000F03A
:100D800063FCE068218A012200F08AFD012000F066
:100D90005BFCE068218A002200F082FD0120BDE8B2
:100DA000B04000F051BC0000B0B504460D464068AC
:100DB0002189002A18BF012200F072FD6069218B91
:100DC00005F0010200F06CFDE069218CC5F34002E2
:100DD00000F066FD606A218DC5F3800200F060FDC1
:100DE000E06A218EC5F3C00200F05AFD606B218FCE
:100DF000C5F3001200F054FDE06BB4F84010C5F3E9
:100E0000401200F04DFD606CB4F84810C5F380123C
:100E100000F046FDE06CB4F85010EA0900F040FD27
:100E2000E068218A002200F03BFD012000F00CFC6C
:100E3000E068218A012200F033FD012000F004FC6B
:100E4000E068218A002200F02BFD0120BDE8B040BF
:100E500000F0FABBB0B50A78002A08BFB0BD04465E
:100E60004D1C07E0D1B220460122FFF72BFF15F8F9
:100E7000012B5AB120780028F4D01028F7D1D1B234
:100E800020460122FFF790FFF1E700BFB0BD000050
:100E900070470000022000F0EDBB0000704700002A
:100EA00010B581B00022009290F82420012A03D1CD
:100EB0000221084601B010BD4B680122062B80F8C4
:100EC000242015D8026803EB8303A3F1050E1F232A
:100ED000D2F834C003FA0EF40B682CEA040C03FABF
:100EE0000EF444EA0C045463092B17D937E000BF11
:100EF00002680C2B20D803EB8303A3F123041F23E8
:100F0000D2F830C003FA04FE0B682CEA0E0C03FA88
:100F100004F444EA0C041463092B20D8D2F810C05E
:100F200003EB4303072489689C402CEA040499409E
:100F300021431161002136E003EB8303A3F1410457
:100F40001F23D2F82CC003FA04FE0B682CEA0E0C07
:100F500003FA04F444EA0C04D462092BDED903EB4F
:100F60004304D2F80CC0A4F11E0E0724896804FAC9
:100F70000EF42CEA040401FA0EF1214323F00104DB
:100F8000102CD1600ED142F20841C4F20101A1F14E
:100F90000804A2420ED0816A41F020018162012141
:100FA00001E000BF0021002280F82420084601B0A3
:100FB00010BD00BF0A68120230D40A68102B42F438
:100FC00000020A602CD140F20801C2F20001096857
:100FD0004DF68362C4F21B32A1FB0212910C01EBAD
:100FE0008101490000910099E1B100990139009116
:100FF0000099C9B10099013900910099B1B10099E6
:1010000001390091009999B1009901390091009935
:1010100000294FF00001E8D1C5E700BF0021C2E779
:101020000021C0E70021BEE70021BCE70021BAE7AC
:101030000021B8E7704700000068C06C70470000EE
:1010400010B5044600684168890644BF01685FEA3C
:1010500081710BD44168090644BF01685FEA4171A0
:101060002AD4416849065BD410BD00BFA16AC906F5
:1010700003D4A16A41F40071A162816801F4602186
:10108000B1F5602F10D1217B71B9416821F02001A9
:101090004160A06A20F48070A062A06AC00403D4FA
:1010A000A06A40F00100A0622046FFF7C3FF20685D
:1010B0006FF012010160CDE7A16AC90603D4A16AED
:1010C00041F40051A162816801F4E041B1F5E04FC3
:1010D00010D1416821F080014160A06A20F4805065
:1010E000A062A06AC00511D4A06A40F00100A0620D
:1010F0000CE000BF4168490508D4816801F4602113
:10110000B1F5602F02D1217B0029E2D02046FFF704
:10111000C5FE20686FF00C01016041684906A3D547
:101120000068C00708BF10BDA06A40F48030A0620C
:10113000204600F0B3F820686FF00101016010BD97
:10114000B0B5002800F0A8800446806A20B121686C
:101150008868C0070BD114E00020E06284F8240006
:10116000204600F09DF821688868C00709D088688B
:1011700020F00100886000F099FB21688A68D2079E
:1011800026D1A06AC0063AD4A06A41F20212904366
:101190000230A062E069D4E9013240EA030C531E38
:1011A000B3FA83F35D091346B2F5807F18BF2B02B3
:1011B000207D257B01284CEA450030D135B3A56A56
:1011C00045F02005A562E56A45F00105E56226E0E7
:1011D000054602E08868C007D3D000F067FB401BDB
:1011E00021680328F6D38868C007F3D0A06A40F0CE
:1011F0001000A062E06A40F00100E062A06AA06A0C
:1012000040F01000A0620120B0BD00BFD4F818C0AB
:101210004EF60005CFF6FF7505EB4C352B434D68B8
:10122000B2F5807F25F4694543EA05034B608B687E
:101230004FF2FD75CFF6E17503EA050343EA0003BB
:101240008B6001D0012A07D122690023CFF6F07309
:1012500003EB025201E000BF0022CB6A23F47003CB
:101260001A43CA62896840F6FE62CFF61F721140C7
:10127000814207D10020E062A16A012262F30101EC
:10128000A162B0BDA06A40F0100020F00200A06290
:10129000E06A40F00100E0620120B0BD704700004C
:1012A00080B586B0014640F60000C4F2010009682E
:1012B00000F5E05291424FF00001CDE9041101D058
:1012C00006B080BD41F21801C4F202010A6842F47E
:1012D00000720A600A6802F400720192019A0A68B8
:1012E00042F004020A60096801F0040101910199C9
:1012F000012102910321039102A900F0C7F91220F4
:101300000021002200F050FB122000F03DFB06B04F
:1013100080BD0000F0B581B000270D46044600975F
:1013200000F0C4FA21688A68D20543D406464868AA
:10133000C00503D4C86A10F4700F45D040F208000D
:10134000C2F200000768022000F06AFB216844F640
:1013500024130A69B7FBF0F0C2F292431A4206D195
:10136000CA6844F62413C0F292031A425ED00A6996
:1013700042F29243C1F249231A4207D1CA6842F2AB
:101380009243C0F249031A4200F0C0800A6949F250
:101390004923C0F224031A424FF0FC0257D1CF6810
:1013A0001F4208BF5422009B02FB00F7BB4253D3ED
:1013B000C3E000BFA06A40F02000A06284F824705F
:1013C000012001B0F0BD00BF0868800700F1B580C2
:1013D000681C00F0A880FDB90868800772D508680D
:1013E000800700F1AA80086880076BD5086880072D
:1013F00000F1A3800868800764D50868800700F1C1
:101400009C80086880075DD508688007E4D594E073
:101410000868800700F1918000F048FA801B21687D
:10142000A842F5D908688007F2D44BE00A6942F275
:101430009243C1F249231A424FF0290207D1CB68E7
:1014400042F29247C0F249073B4208BF1422009B78
:1014500002FB00F7BB4270D2681C4FD055BB00980E
:10146000B8422FD30098013000900098B84264D25F
:101470000098B84226D30098013000900098B842F6
:101480005BD20098B8421DD30098013000900098BC
:10149000B84252D20098B84214D30098013000905C
:1014A0000098B842DBD348E00098013000900098E3
:1014B000B84233D200F0FAF9801BA842F4D9009860
:1014C000B842F1D2A06A40F00400A062002084F883
:1014D0002400032001B0F0BD009801300090009876
:1014E000B8422AD20098013000900098B84224D225
:1014F0000098013000900098B8421ED20098013048
:1015000000900098B842E7D317E000BF5422009B38
:1015100002FB00F7BB429FD30FE000BF21680CE045
:101520000868800709D40868800706D4086880071F
:101530005CBF08685FEA8070F2D56FF01200086047
:10154000A06A40F40070A062886800F46020B0F5E2
:10155000602F01D1207B18B1002001B0F0BD00BF89
:10156000A06A20F48070A062A06AC004F4D4A06ACB
:1015700040F00100A062002001B0F0BD10B50446AB
:1015800090F82400012804BF022010BD012084F837
:1015900024002046FFF792FA20B1002184F824109D
:1015A00010BD00BF42F2044C2068A16AC4F2010CD5
:1015B00040F2013291430CF57F7201F58071904247
:1015C000A16233D0A16A21F48011A162416849056A
:1015D00004D5A16A012363F30D31A162A16A00233E
:1015E000C9044FF0000144BFE16A21F00601E16245
:1015F0006FF0020184F824300160816801F46021F9
:10160000B1F5602F06D190420AD1DCF8001011F438
:10161000702F05D0816841F480118160002010BDD9
:10162000816841F4A0018160002010BDDCF8001049
:1016300011F4702FC6D0A16A41F48011A162DCF8C8
:1016400000104905C5D4C9E7B0B5044600F02EF92D
:10165000054640F20000C2F200000078611C18BF8D
:10166000044400BF00F022F9401BA042FAD3B0BDF1
:101670007047000040F21441C4F201010A680242BE
:1016800014BF08607047FFF7F3BF00002DE9F04F6B
:1016900082B041F20042C4F201020E68042390427B
:1016A00008BF0323002E009300F0F68040F20C4E9A
:1016B0004FF6FF7CC4F2010E00220124C1F2100C8F
:1016C0004FF0000A4FF0000943E000BF012502F08F
:1016D0000C040F27A7402BEA070705FA04F43C4344
:1016E00043F82640D1F804B040F20045C4F20105A9
:1016F0005FEACB332B6854BF23EA080343EA0803AD
:101700002B606B685FEA8B3454BF23EA080343EA1B
:1017100008036B605FEACB24AB6854BF23EA08037D
:1017200043EA08035FEA8B24AB60DEF800304FF039
:10173000010454BF23EA080343EA0803CEF800304B
:101740000E680AF1010A36FA0AF302F1040200F007
:10175000A38004FA0AF816EA080FF1D04B68634533
:1017600012DC122B56D8DFE803F0350B45495555EE
:1017700055555555555555555555554D510000BF65
:10178000D1F80C9046E000BF4FF6FF77C1F2210779
:10179000BB420FDC0027C1F21107BB421AD0002761
:1017A000C1F21207BB4215D00027C1F22107BB428C
:1017B00010D02FE00027C1F22207BB420AD0002739
:1017C000C1F23107BB4205D00027C1F23207BB424C
:1017D00020D100BF8B684BB1012B14BFC0F814801F
:1017E000C0F810804FF0080914E000BF4FF0040962
:1017F00010E000BFCB6803F108090BE04FF00009CF
:1018000008E000BFCB6803F1040903E0CB6803F1F3
:101810000C0900BF13460546BAF1080F24BF203B50
:1018200004352E680F279F40BE4309FA03F3334364
:101830002B60CB79DB067FF583AF41F21804C4F24D
:10184000020423684FEA9A0643F0010323602368E9
:1018500040F6000403F001030193019B40F20043B2
:10186000C4F20103A3F57E7353F826B0C4F2010459
:10187000A0420FD040F60044C4F20104A0423FF45D
:1018800025AF41F20004C4F20104009DA04208BF4C
:1018900002251CE700251AE702B0BDE8F08F000022
:1018A000002A08BF090401617047000040F21010CF
:1018B000C2F200000068704740F2000040F21011D0
:1018C000C2F20000C2F2000100780A681044086009
:1018D0007047000080B542F20000C4F202000168C7
:1018E00041F010010160032000F08AF80F2000F0A1
:1018F00005F800F027F8002080BD000070B540F228
:101900000006C2F2000640F208013278C2F200017D
:101910004FF47A730968B3FBF2F20446B1FBF2F1BB
:10192000084600F049FC0F2C4FF0010508D838B9E3
:101930004FF0FF3021460022002500F035F874609A
:10194000284670BD82B041F21800C4F2020001685E
:10195000022241F001010160016801F001010191E1
:101960000199416841F080514160406800F0805029
:10197000009000980420C4F20100016862F31A612B
:10198000016002B070470000002848BF704700F0B7
:101990001F01012202FA01F14EF200124009CEF2BB
:1019A000000242F82010704710B54EF60C5CCEF2E3
:1019B000000CDCF80030C3F3022E8EF00704042C78
:1019C00028BF0424BEF103034FF0FF3E0EFA04F4D7
:1019D00038BF0023A14399400EFA03F39A43114301
:1019E00000F00F02043A624409010C3200F1604336
:1019F000B0F1FF3FC8BF03F56442117010BD000095
:101A00004EF60C51CEF200010A684FF6FF031A4061
:101A100060F30A2242F0806040F0FD700860704779
:101A200080B5012818D0022836D0102832D141F2D2
:101A30000401C4F202010A6851F8040CC00129D55E
:101A4000C2F383402DA3185CD2033DD440F60012AC
:101A5000C0F23D02504343E041F20400C4F20200F0
:101A6000C16940F202320A40B2F5817F04BF4FF4EF
:101A7000004080BD01F44071B1F5407F1CD0B1F54C
:101A8000007F07D1006A49F64041800701EAE07013
:101A900080BD00BF002080BD00F0A0F941F204012C
:101AA000C4F2020109680222C1F3813102EB410153
:101AB000B0FBF1F080BD00BF50F8040C4FF22441A0
:101AC000800301EAE07080BD0A6810A3C2F34042BF
:101AD0009A5C41F20023C0F27A03B3FBF2F2504366
:101AE0000968490248BF80BD4AF6AB214000CAF6EA
:101AF000AA21A0FB0101480880BD00BF0203040524
:101B0000060708090A0B0C0D0E0F10100102000049
:101B10002DE9F04182B00446007841F21C06C0076E
:101B2000C4F202064AD0306810F0805808D13068FC
:101B300040F080503060306800F080500190019893
:101B400047F20007C4F200073868C00512D43868AD
:101B500040F480703860FFF7A9FE05463868C0057C
:101B600008D4FFF7A3FE401B6428F7D9032002B076
:101B7000BDE8F081706810F4407012D0616801F423
:101B8000407188420DD0706840F24042C4F2422257
:101B9000012320F4407113600023C00713607160BB
:101BA0002AD17068616820F440700843B8F1000FD2
:101BB000706003D1306820F0805030602068810769
:101BC00007D556F8181CA26821F44041114346F885
:101BD000181CC00604D4002002B0BDE8F08100BF8C
:101BE00056F8180CE16820F48000084346F8180CF9
:101BF000002002B0BDE8F081FFF758FE054641F233
:101C0000883700BF70688007CBD4FFF74FFE401BBA
:101C1000B8424FF00300F5D9EBE700002DE9F0439F
:101C200081B0002800F0858042F20008C4F202086A
:101C30000446D8F800000D4600F0070088420CD298
:101C4000D8F8000020F007002843C8F80000D8F8B2
:101C5000000000F00700A8426BD1206841F204099F
:101C60008107C4F2020917D5410705D5D9F800103C
:101C700041F4E061C9F80010010705D5D9F800105A
:101C800041F46051C9F80010D9F80010A26821F0A1
:101C9000F0011143C9F80010C00741D1D8F8000085
:101CA00000F00700A8420CD9D8F8000020F0070087
:101CB0002843C8F80000D8F8000000F00700A84248
:101CC00037D12068410707D5D9F80010E26821F420
:101CD000E0611143C9F80010000708D5D9F80000E9
:101CE000216920F4605040EAC100C9F80000D9F829
:101CF000002002F00C00082841F20020C0F27A0017
:101D000050D143F26E33C2F38341C0F60003595CF5
:101D1000D2033BD440F60010C0F23D00484341E0FE
:101D2000606802280AD001282AD159F8041C8903C6
:101D300008D4012001B0BDE8F08300BF59F8041CAD
:101D40008901F6D5D9F8001021F003010843C9F83C
:101D50000000FFF7ABFD064641F28837D9F80000D6
:101D6000616800F00C00B0EB810F97D0FFF79EFD8B
:101D7000801BB842F2D9032001B0BDE8F08300BF58
:101D800059F8041C8907D4D5DCE700BFD9F8002036
:101D900043F25433C2F34042C0F600039A5C484316
:101DA000B0FBF2F0D9F8001043F25632C1F3031140
:101DB000C0F60002515C40F2080220FA01F140F244
:101DC0000400C2F200000068C2F200021160FFF7D6
:101DD00095FD002001B0BDE8F083000040F208004E
:101DE00041F20401C2F20000C4F202010068096875
:101DF00043F26632C1F3C221C0F60002515CC84012
:101E0000704700002DE9F04182B0002868D00446F8
:101E1000007841F20006C007C4F2020625D07068BF
:101E200000F00C0004281BD0706800F00C0008289B
:101E300002D17068C00313D46068002800F0688184
:101E4000B0F5A02F00F07C81B0F5803F00F07C81E0
:101E5000306820F480303060306820F4802076E1F3
:101E60003068800301D56068D0B32078800718D52A
:101E7000706810F00C0F07D0706800F00C00082894
:101E80006ED17068C0036BD43068800702D52069BA
:101E9000012825D13068616920F0F80040EAC100CE
:101EA0003060207800071FD42078400732D4E569DD
:101EB00095B1706800F00C00082840F08F80012D6B
:101EC0000ED07068216A00F480328A4208D1616ABB
:101ED00000F47010884203D1002002B0BDE8F08108
:101EE000012002B0BDE8F081A069002862D0002086
:101EF000C4F242200121C0F88014FFF7D7FC054648
:101F0000706A800700F18C80FFF7D0FC401B02282C
:101F1000F6D92AE1F06910F0805808D1F06940F054
:101F20008050F061F06900F080500090009847F216
:101F30000007C4F200073868C00529D4386840F4A7
:101F400080703860FFF7B2FC054600BF3868C005F6
:101F50001ED4FFF7ABFC401B6428F7D905E100BF96
:101F60002069002840F20000C4F2422000F0828084
:101F700001210160FFF79AFC054600BF3068800729
:101F80003FF588AFFFF792FC401B0228F6D9ECE042
:101F9000E068002800F08080052800F09780012884
:101FA00000F09880306A20F001003062306A20F042
:101FB000040092E00020C4F242200021C0F8801406
:101FC000FFF774FC054600BF706A80077FF56CAFB1
:101FD000FFF76CFC401B0228F6D9C6E00027C4F2CC
:101FE000422700203866FFF761FC022D05460BD121
:101FF0003068800140F1BE80FFF758FC401B02288A
:102000004FF00300F4D968E7306880017FF564AFD2
:10201000FFF74CFC401B02284FF00300F4D95CE7AB
:1020200040F20800C2F20000006844F6D351C1F249
:102030006201A0FB0101480A019000BF00BF0198A6
:10204000411E002801913FF42FAF00BF0198411EAF
:10205000002801913FF428AF00BF0198411E0028DD
:1020600001913FF421AF00BF0198411E002801916A
:10207000E4D119E700210160FFF718FC054600BF15
:10208000306880077FF50DAFFFF710FC401B02287A
:102090004FF00300F4D920E7306A20F001003062ED
:1020A000306A20F004003062FFF700FC054641F280
:1020B000883700BF306A800720D5FFF7F7FB401B49
:1020C000B8424FF00300F5D907E700BF306A40F08F
:1020D00004003062306A40F001003062FFF7E6FB36
:1020E000054641F2883700BF306A800706D4FFF703
:1020F000DDFB401BB842F7D937E000BFB8F1000F55
:102100007FF4D5AEF06920F08050F061CFE600BFDB
:10211000306820F480303060306820F480203060F7
:10212000FFF7C4FB054600BF306880037FF59DAE16
:10213000FFF7BCFB401B64284FF00300F4D9CCE64A
:10214000306840F480203060306840F48030306087
:10215000FFF7ACFB054600BF306880033FF585AE56
:10216000FFF7A4FB401B6428F6D9032002B0BDE8AA
:10217000F08100BF206AB0F5803F05D17168A26888
:1021800021F40031114371607168626A21F47411A5
:1021900010430843706001203866FFF787FB044650
:1021A000306880013FF598AEFFF780FB001B0228E6
:1021B0004FF00300F4D990E6411E0020B0EB116F00
:1021C0001CBF012070474EF21002CEF20002516097
:1021D0004EF62351CEF20001F0230B7007219060E0
:1021E00011607047FEE70000FEE70000FEE7000018
:1021F0007047000070470000FFF75EBB70470000AB
:10220000FEE70000A6B0FFF765FB1CAC201D2421F3
:10221000FEF781F802201C9001202090102000255C
:10222000219020461695CDE914552395FFF7EAFD38
:1022300020B1EFF3108072B6FEE700BF0F20CDE9AA
:10224000170517A80021CDE919551B95FFF7E6FCE6
:1022500020B1EFF3108072B6FEE700BF0225002721
:1022600013A813951597FFF753FC28B1EFF31080CF
:1022700072B600BFFEE700BF41F218001F97C4F21C
:102280000200016840F6000841F020010160016889
:10229000C4F2010801F0200117911799016808F5AF
:1022A000806941F0040101600168002201F004012D
:1022B0001791179901684FF4784A41F008010160BD
:1022C00000684FF4784100F00800179017984846CE
:1022D000FFF7E6FA40464FF4F85100224FF4F85B5E
:1022E000FFF7DEFA0020C1F221001CAC1D90012690
:1022F000404621461C951E96FFF7C8F948462146E0
:10230000CDE91CA6CDE91E75FFF7C0F94046214670
:10231000CDE91CB6CDE91E75FFF7B8F907200021FD
:1023200000220724FFF740FB0720FFF72DFB40F2B8
:102330007005C2F2000508F5E051284640F8181F64
:102340004FF4602107730775C161C0E90177066129
:10235000FEF7F6FE20B1EFF3108072B6FEE700BF85
:1023600000201E9405F11804CDE91C061CA9204686
:10237000FEF796FD20B1EFF3108072B6FEE700BFC6
:102380004FF480604FF40071CDE9101812904FF4B3
:1023900080704FF4004140F2B8074FF480424FF490
:1023A0000053CDE90C18CDE90E084FF480504FF4DE
:1023B0000061C2F20007CDE90839CDE90A29CDE96B
:1023C0000008CDE90219CDE904190690384610211C
:1023D00002224346CDF81C90FEF7CEFB3846002182
:1023E0000022FEF745FC24A13846FEF733FD46F2F5
:1023F00066684FF60069C4F20A08C4F2AF090FF22A
:10240000840A05F108060FF2880B00BF2046FFF78B
:10241000B5F820466421FEF77DFF2046FEF70CFE4E
:10242000288080B200F0BEFD4FF06632434600F0D7
:10243000D1FD00224B4600F05BFC00F027FC6860F9
:10244000384600210122FEF713FC38465146FEF7BC
:1024500001FD686800F0BCFE02460B463046594656
:10246000FDF7BEFE38463146FEF7F4FC4FF4967099
:10247000FFF7EAF8CAE700BF524541442041444310
:1024800000000000476961205472693A2000000092
:10249000252E3366000000005FEA400C08BF91F073
:1024A000000F4FEA8C234FEAC12243EA51514FEA11
:1024B0001C5018BF00F5F0404FEA300018BF41F043
:1024C00000415FEA6C5C00F02980BCF1FF3F08BF6F
:1024D00040F080407047130C06BF12044FF0100C00
:1024E0004FF0000C130E04BF12020CF1080C130F76
:1024F00004BF12010CF1040C930F04BF92000CF105
:10250000020CD30F04BF52000CF1010C11464FF026
:102510000002A0F11F00A0EB0C00704711F0004F6B
:1025200008BF704731F000413FF4D5AF0B0C06BF38
:1025300009044FF0100C4FF0000C0B0E04BF090201
:102540000CF1080C0B0F04BF09010CF1040C8B0FEC
:1025500004BF89000CF1020CCB0F04BF49000CF141
:10256000010CCCF1200322FA03F341EA030102FA41
:102570000CF2A0EB0C0000F10100704723F07F4744
:1025800020F07F4C80EA030000F00040ACEB070332
:1025900003F57C5303F1FF032DE9804909B44FEAA9
:1025A000144324EA03484FEA154B25EA0B4E0FF279
:1025B000042606EB13273E7803FB0667C7F50007E2
:1025C00007FB06F64FEAD64606F102064FEA5437F5
:1025D00007FB066CCCF1005C4FEA1C472CEA074C69
:1025E0000CFB06F507FB06F404EB15464FEA9616BE
:1025F00049085FEA320234BF00204FF000404FEA42
:10260000D13706FB07FC4FEA1C4C0CFB0BF7D21B27
:1026100003FB0CF761EB07010CFB0EF7B0EB074077
:1026200072EB17420CFB08F734BFA2EB0742B2EB88
:10263000074261EB17414FEA0C444FEA910706FB52
:1026400007FC4FEA1C4C0CFB0BF7B0EBC74072EBDE
:10265000573203FB0CF734BFA2EBC742B2EBC742C1
:1026600061EB57310CFB0EF7B0EBC70072EB577202
:102670000CFB08F734BFA2EBC702B2EBC70261EB59
:1026800057714FEA816141EA92114FEA826242EA50
:1026900090124FEA806004EBCC04039F4FEAD137DD
:1026A00006FB07FC4FEA1C4C0CFB0BF7D21B03FB91
:1026B0000CF761EB07010CFB0EF7B0EB074072EB78
:1026C00017420CFB08F734BFA2EB0742B2EB0742FC
:1026D00061EB17414FEA8C5504EB9C244FEA9107BC
:1026E00006FB07FC4FEA1C4C0CFB0BF7B0EBC7409A
:1026F00072EB573203FB0CF734BFA2EBC742B2EBCD
:10270000C74261EB57310CFB0EF7B0EBC70072EB21
:1027100057720CFB08F734BFA2EBC702B2EBC7023B
:1027200061EB57714FEA816141EA92114FEA82628F
:1027300042EA90124FEA806015EB4C2544F1000408
:102740004FEAD13706FB07FC4FEA1C4C0CFB0BF79A
:10275000D21B03FB0CF761EB07010CFB0EF7B0EB90
:10276000074072EB17420CFB08F734BFA2EB07429D
:10277000B2EB074261EB17414FEA813141EA9241E6
:102780004FEA823242EA90424FEA80304FEA0C76BA
:1027900015EB1C1544F1000448EA03434EEA0B48CC
:1027A0004FF0000EB2EB080C71EB030724BF62463A
:1027B00039464EEB0E0E4FF0000B001852414941C6
:1027C0004BEB0B0BB2EB080C71EB03077BF1000B2F
:1027D00024BF624639464EEB0E0E4FF0000B001838
:1027E000524149414BEB0B0BB2EB080C71EB030769
:1027F0007BF1000B24BF624639464EEB0E0E51EAC8
:10280000020718BF46F0010616EB0E7655F10002DE
:1028100054F1000103D5BDE88901BDE80088BDE899
:102820008901BDE80048B619524141EB0101A3F10D
:102830000103704780807F7E7D7C7B7A7978777614
:1028400076757473727171706F6E6E6D6C6C6B6A8D
:102850006A6968686766666564646363626161602B
:10286000605F5F5E5E5D5D5C5C5B5B5A5A595958A8
:102870005857575656555555545453535252525112
:10288000515050504F4F4F4E4E4D4D4D4C4C4C4B68
:102890004B4B4A4A4A4949494848484747474746AF
:1028A00046464545454444444443434343424242EB
:1028B000424141419C46002B30D477002BD04FEA57
:1028C00037071CB503B44FF010004FF01001BAF1F8
:1028D000000F06D0BCF1000FDCBF40F0080040F054
:1028E00008014FF000000FBCBDE810400BF1010BD8
:1028F000BBF1010F08BF5FEA170722BF12F1010207
:1029000011F101014FF0004143F1000300F00040DC
:1029100043EA00007047F9D35708D0E746EA064675
:102920004FEA164613F1400F1FDD13F1200FDFBFF2
:1029300016430A46002120335B42BED0C3F1200774
:1029400046EA06464FEA164602FA07F746EA07063F
:1029500022FA03F2C3F1200701FA07F742EA07025D
:1029600021FA03F14FF00003A7E746EA020646EA20
:1029700006464FEA164646EA0106BCBF46EA064648
:10298000360C4FF000034FF000024FF0000194E7C7
:102990002DE9804C70B49A46934691E8380007C8F8
:1029A00031EA400C48BF34EA430C03D5FFF7E6FD9B
:1029B000FFF780FFF0BCBDE8008C2DE9804C70B4BF
:1029C0009A46934691E8380007C810F0804F08BF38
:1029D00013F0804F03D100F005F8FFF76BFFF0BC58
:1029E000BDE8008C20F07F4723F07F4C80EA030095
:1029F00000F0004007EB0C03A3F57C53A3F1FE03AA
:102A000092F0000F00F0B38095F0000F00F0778097
:102A10002DE901494FEA114021EA00484FEA1446E6
:102A200024EA064700FB06FC08FB06F607FB08F84D
:102A300018EB06484CEB164C00FB07F718EB074861
:102A40004CEB17404FEA124B22EA0B4E4FEA154669
:102A500025EA06470BFB06FC0EFB06F607FB0EFEFF
:102A60001EEB064E4CEB164C0BFB07F71EEB074E0E
:102A70004CEB174B18EB0B0840F1000018EB0E0B5A
:102A800058EB000840F100008F1A4FF000014FF0A2
:102A900000063CBFC943661B14BFB5EB040C002104
:102AA0003CBFC943F61B4FEA174427EA04454FEAE7
:102AB0001C472CEA074C04FB076205FB07F70CFBDD
:102AC00005F616EB074642EB174204FB0CFC16EB2F
:102AD0000C4642EB1C421BEB060658EB020241413E
:102AE0004EEA8E0E46EA9E0601D5BDE80189B6196A
:102AF000524141EB0101A3F10103BDE801894FEA15
:102B0000144524EA05464FEA114721EA074C05FB24
:102B100007F406FB07F70CFB06F111EB074144EB4A
:102B2000174405FB0CFC11EB0C4144EB1C444FEA31
:102B3000124722EA074C05FB07F206FB07F70CFBDE
:102B400006F616EB074642EB174205FB0CFC16EBAC
:102B50000C4642EB1C456A1854F1000148BF70470F
:102B6000B619524141EB0101A3F10103704795F001
:102B7000000F37D04FEA114221EA02464FEA1447CC
:102B800024EA074C02FB07F106FB07F70CFB06F4EF
:102B900014EB074441EB174102FB0CFC14EB0C4413
:102BA00041EB1C414FEA154725EA074C02FB07F5AC
:102BB00006FB07F70CFB06F616EB074645EB174539
:102BC00002FB0CFC16EB0C4645EB1C42121951F1B2
:102BD000000148BF7047B619524141EB0101A3F112
:102BE000010370474FEA144524EA05464FEA1147AE
:102BF00021EA074C05FB07F106FB07F70CFB06F281
:102C000012EB074241EB174105FB0CFC12EB0C42A7
:102C100051EB1C414FF0000648BF7047921841EB42
:102C20000101A3F101037047490050EAC12018BF18
:102C300004204A0D18BF40F0010040F2FF72B2EBD1
:102C4000515F08BF40F00200012808BF052070470F
:102C500030380A2801D20120704700207047000058
:102C600010B500290AD00878002807D00548784414
:102C7000FDF7D6FE002801D0002010BD02487844A0
:102C800010BD0000320700002A07000021F00042BA
:102C900001F00043A2F16052B2F5801F28BFD2F1CB
:102CA0007F6C0BD95FEA001C43EAC20242EB507012
:102CB00018BF704728BF20F001007047B2F5801F91
:102CC000BCBF184670474FEA410C1CF5001F02D2EA
:102CD000084600F0EEBA70B500F026FA0000008950
:102CE000FFF7F6BF4FF00040A0F5800070470000EE
:102CF0002DE9C04130B4DFF8A4C23CEA111418BF7A
:102D00003CEA131400F0ED801CEA111481EA03057B
:102D100044EAD57418BF1CEA131500F0C880A4EB70
:102D2000050404F17F7404F500344FF0004545EAD2
:102D3000C12145EAC32341EA505143EA52534FEAC5
:102D4000C0204FEAC222994208BF904200F09D8005
:102D50004FEA13650FF24416765D4FEA134506FB02
:102D600005F7C7F1807706FB07F74FEAD737A7FBD0
:102D700003687642A7FB06CEC8F5803838BFA8F1B5
:102D8000010807FB08E6A6FB028C4FF0000EE6FBED
:102D900003CEDCF1000CCEF1004E38BFAEF1010ED7
:102DA000A6FB0C584FF00007E6FB0E87A1FB08C6F8
:102DB000A0FB07CE16EB0E064FF0000545F100050F
:102DC000E1FB076515F1E04E7EBFA4F580345FEAB4
:102DD00046066D4116F1800745F100054FEA1727B9
:102DE00047EA05674FEA15254FEA0666A6F1DE4673
:102DF000B6F1805F20D9384605EBC47124F0010C90
:102E000001EB0C11BCF1FE6F02D8F0BCBDE80081F3
:102E100024425CBF01F5801E9EEAC47F02D4F0BC50
:102E2000BDE80081244200F13980A1F1C041F0BC2D
:102E3000BDE8004100F0C6B94FEAD02040EA415059
:102E40004FEAD1214FEAD22242EA43524FEAD3233A
:102E5000A7FB028607FB036605FB02661EEA0E0F50
:102E600058BFA6EB0056B6EB00564FEA520E4EEA9C
:102E7000C37E18EB0E0E56EB530EBCD518EB0208B2
:102E80005E417F1C55F10005B5E74FF480154FF00A
:102E900000074FF000064FF00008ACE701F1C04119
:102EA00001F000414FF00000F0BCBDE800810CEAE9
:102EB000131511EA0C1F00D00CE013EA0C1F00F0F0
:102EC00026804FF0000081EA030101F00041F0BCD0
:102ED000BDE80081F0BCBDE8004181EA030100F0DB
:102EE00071B9F0BCBDE8004170B500F01DF900BF3C
:102EF000097EFC3E00F007B84FF0000081EA0301B4
:102F000001F00041704781EA030100F05BB9F0BCB9
:102F1000BDE8004122494FF000007047FFFDFBF97A
:102F2000F7F5F4F2F0EEEDEBE9E8E6E4E3E1E0DEFC
:102F3000DDDBDAD8D7D5D4D3D1D0CFCDCCCBCAC86E
:102F4000C7C6C5C4C2C1C0BFBEBDBCBBBAB9B8B795
:102F5000B6B5B4B3B2B1B0AFAEADACABAAA9A8A888
:102F6000A7A6A5A4A3A3A2A1A09F9F9E9D9C9C9B56
:102F70009A99999897979695959493939291919001
:102F80008F8F8E8E8D8C8C8B8B8A89898888878792
:102F90008685858484838382828181800000FF0707
:102FA0000000F87F10F0004248BF4042B0FA80F3C2
:102FB00010FA03F10AD0C3F11D0303F5806302EB9D
:102FC00003524FEA415002EBD12170474FF000000D
:102FD0007047000070B5DFF848C11CEA111E1EBF23
:102FE0001CEA13159EEA0C0F95EA0C0F00F06F8097
:102FF00081EA03044EEAD47EAE4421EA4C1123EA6E
:103000004C1341F4801143F48013AEF17F7EA1FB99
:10301000024CA0FB0365361955EB0C05A1FB034CD4
:103020004CF10003A0FB021C16EB0C06654153F1AA
:103030000003094218BF46F0010613F4007F0BD1CC
:103040004FEA03314FEA053041EA155140EA165084
:1030500034036FF003020AE04FEAC3214FEAC520B0
:1030600041EA555140EA5650F4026FF0020202EB79
:103070002E4201EB025585EACE710AD05FEA440C7C
:1030800018BF24F0004450F1000041F1000120EA93
:10309000D47040F2FE7C624500D270BDA84214BFDD
:1030A0004FF080444FF04044002E08BF0024BEF192
:1030B000806FA8BFA1F1C041BDE8704080F282805E
:1030C00001F1C04101F000414FF0000070470CEAEF
:1030D00013159EEA0C0F18BF95EA0C0F06D081EA73
:1030E000030E4FF000000EF0004170BD00F01CF820
:1030F0008900013E00F007B800F009B84FEA430C20
:103100005FEA5C5C08D081EA030100F05BB84FEA3B
:10311000410C5FEA5C5CF6D102494FF00000704759
:103120000000FF070000F87F0EF1020E2EF0030EE4
:103130005EF8046B364205D4012A43EB030515F50E
:10314000001F12D8012841EB010C1CF5001F0CD800
:103150000ED14FEAD17C0CEB4C0C0CF1020C15F5A6
:10316000001F08BF4CEBD37C04E04FF0080C01E0DB
:103170004FEAD37C0CEB4C0526FA05F606F0070661
:10318000B6F1040C06D20EEB860CBDE870404CF094
:10319000010C6047DFE80CF0090B02024FF0004120
:1031A000A1F500214FF0000070BD1946104601281E
:1031B00051EB010418BFD4F5001484BF002001F0C6
:1031C000004170BD0808A0F500114FEA31017047B9
:1031D00043004FEAD30C4FEA3C0C43401FBF40076B
:1031E0000CF1605113F0FE4F70471CF0006F03D1DB
:1031F0000CF00041002070470CF0004343EA50708F
:1032000040EACC0010B500F00EF800BF00000092BC
:103210004FEA0001FFF7D6BF4FF00041A1F50021B2
:103220004FF0000070470EF1020E2EF0030E5EF814
:10323000044B244204D44FEA4102B2F17F4F11D82B
:103240004FEA4003B3F17F4F0CD80ED14FEAD07C48
:103250000CEB4C0C0CF1020CB2F17F4F08BF4CEBA5
:10326000D17C04E04FF0080C01E04FEAD17C0CEB7C
:103270004C0324FA03F404F00704B4F1040C06D25E
:103280000EEB840CBDE810404CF0010C6047DFE809
:103290000CF0070802024FF00040A0F5800010BDBE
:1032A0000846420018BFD2F1807288BF00F000408B
:1032B00010BDFF2141EAD050C0057047FDF72DB980
:1032C00002400000000000A00000000005400000D7
:1032D000000000C8000000000C4000000000409CFE
:1032E00000000000194000000020BCBE00000000EB
:1032F00034400000BFC91B8E00000004B540000030
:10330000504BCFD06607E2CF010000006C410000B7
:103310003E8251AADFEEA73401000000D94200002E
:10332000DCB5A0E23A301F97FFFFFFFFB445000075
:10333000FD25A0C8E9A3C14FFFFFFFFFFF3F00002D
:103340000000008000000000FF3F0000000000803F
:103350000000000001020000000000000000010267
:103360000304060708090000000001020304020329
:103370000405060708090A0B0C0D0E0F10100000BB
:10338000C0330008000000201000000028010008E1
:10339000D033000810000020080700004401000896
:1033A0001C00000043000000F8FFFFFF0C000000BD
:1033B0000E0000000F0000002E00000000000000C2
:1033C00001000000100000000024F40000000000D4
:04000005080000ED02
:00000001FF
