:020000040800F2
:1000000030070020D1010008411B0008391B0008FF
:100010003D1B000859090008611B00080000000092
:10002000000000000000000000000000491B000864
:10003000690C000800000000451B00084D1B00086B
:10004000EB010008EB010008EB010008EB010008E0
:10005000EB010008EB010008EB010008EB010008D0
:10006000EB010008EB010008EB010008EB010008C0
:10007000EB010008EB010008EB010008EB010008B0
:10008000EB010008EB010008EB010008EB010008A0
:10009000EB010008EB010008EB010008EB01000890
:1000A000EB010008EB010008EB010008EB01000880
:1000B000551B0008EB010008EB010008EB010008EC
:1000C000EB010008EB010008EB010008EB01000860
:1000D000EB010008EB010008EB010008EB01000850
:1000E000EB010008EB010008EB01000800F002F84A
:1000F00000F05FF80AA090E8000C82448344AAF163
:100100000107DA4501D100F054F8AFF2090EBAE860
:100110000F0013F0010F18BFFB1A43F0010318473B
:100120000C1D00002C1D0000103A24BF78C878C1B7
:10013000FAD8520724BF30C830C144BF04680C60ED
:10014000704700000023002400250026103A28BF35
:1001500078C1FBD8520728BF30C148BF0B60704739
:10016000692900F0CB80642900F0C880752900F06F
:10017000C5806F2900F05C81782900F083810368D5
:10018000DB0928BF41F08001632900F01683E329D1
:1001900000F02983002070471FB500F083FB0400A6
:1001A0000020002101F0FAFD401C60601FBD10B569
:1001B00010BD00F051FB1146FFF7EEFF01F0D2FC3D
:1001C00000F074FB03B4FFF7F2FF03BC00F0BCFBCC
:1001D0000948804709480047FEE7FEE7FEE7FEE7DB
:1001E000FEE7FEE7FEE7FEE7FEE7FEE70448054917
:1001F000054A064B70470000511B0008ED0000083F
:1002000030010020300700203003002030030020A0
:100210000FB41CB5074B06AA7B44694600900598AD
:1002200000F0A9FA0020694600F0B8FA1CBC5DF89D
:1002300014FB00008105000070B504468569006864
:10024000C10601D5302600E02026C00707D070BDCA
:10025000D4E9012130469047206A401C20626D1E7F
:10026000F6D570BD70B5044685690078C00707D122
:1002700070BDD4E9012120209047206A401C2062F3
:100280006D1EF6D570BD09684A0501D540B27047AC
:10029000C905FCD500B2704709684A0501D5C0B24E
:1002A0007047C905FCD580B2704770B50C4605464D
:1002B000012A05D02878800600D5EA69002302E0EB
:1002C000012305E05B1C934202D2E05C0028F9D1D7
:1002D000A869E618C01AA861286A18442862284646
:1002E000FFF7AAFF04E0D5E9012114F8010B9047BC
:1002F000B442F8D32846FFF7B5FF70BD2DE9F041B1
:100300000646002410687529314616A510D0FFF75F
:10031000BAFF002802DA404213A507E031688A07D5
:1003200001D512A502E0490704D511A5012401E079
:10033000FFF7B2FF00210A2206F1240709E0B0FB13
:10034000F2FCB0FBF2F302FB1C003030785418468C
:10035000491C0028F3D123462A463046BDE8F04127
:1003600000F0AAB9000000002D0000002B000000E2
:10037000200000002DE9FF5F15468A460446DFF89D
:10038000AC80F8440027D8E900103E46CDE90010C3
:1003900010E03AF816106A4602A800F030FA411C44
:1003A00007D02178890603D5E269391891420DD822
:1003B0000744761C2078800602D5E069B84205DD46
:1003C000AE42E6DB3AF816000028E2D1A069C01B75
:1003D000A0612046FFF730FFD8E90010CDE90010FA
:1003E000002017E03AF818106A4602A800F007FA51
:1003F000B0F1FF3F81460BD000250DF1080B05E061
:10040000D4E901211BF8050090476D1C4D45F7D339
:1004100008F10100B0428046E4DB206A38442062E3
:100420002046FFF71FFFBDE8FF9F0000421A0000B3
:1004300070B5044621461068FFF72EFF002104F135
:10044000240505E000F007023032C0086A54491C58
:100450000028F7D12068002308A2050708D500F07E
:100460002000084304D0E069012305A2401EE0619A
:100470002046BDE8704000F01FB9000000000000F9
:100480003000000070B504460D4621461068FFF7A5
:1004900003FF2188090502D50F4A7A4402E00E4A7B
:1004A0007A440E32002104F1240305E000F00F0627
:1004B0000009965D5E54491C0028F7D1207800237E
:1004C000000704D5702D02D009B102231132204655
:1004D000BDE8704000F0F0B8321900002DE9F05F7F
:1004E000894604464FF0000ADFF874B1FB44C0F8B7
:1004F00020A02046E1688847002874D0252806D02F
:10050000D4E901219047206A401C2062F1E70026CF
:100510005F462046E16888472028054607DB312DE5
:1005200005D2781910F8200C08B10643F1E7B0079E
:1005300001D526F00406C4F81CA00027C4F818A0B2
:100540002A2D09D0284601F021FC38B304EB870896
:10055000303DC8F8185019E059F8041B204604EB48
:1005600087029161E1688847012F054618D1E0694B
:10057000002820DA26F020061DE0D8F8180000EB4D
:10058000800005EB40003038C8F818002046E168CC
:100590008847054601F0FAFB0028EED1012F0AD06A
:1005A0002E2D08D12046E16888477F1C0546022F82
:1005B00046F02006C4DBA069002803DA404246F07A
:1005C0000106A061F00701D026F010066C2D0BD0BB
:1005D000682D09D04C2D39D06A2D35D0742D35D0E9
:1005E0007A2D33D016E038E0E1682F462046884760
:1005F000B842054609D16C2F26D04FF48060E168DF
:10060000064320468847054604E06C2F1AD04FF475
:10061000807006430DB3A5F14100192802D820359A
:1006200046F400664A462946204626604E46FFF7B5
:1006300097FD80B101280BD0F61D26F0070000F1D0
:10064000080956E74020E4E78020D8E70020D6E7F5
:1006500006F104094DE7284652E7206ABDE8F09FFD
:10066000081900004FF0000200B513469446964664
:10067000203922BFA0E80C50A0E80C50B1F12001B5
:10068000BFF4F7AF090728BFA0E80C5048BF0CC063
:100690005DF804EB890028BF40F8042B08BF7047C1
:1006A00048BF20F8022B11F0804F18BF00F8012B33
:1006B00070477047704770472DE9F0470D469946DF
:1006C0009246044600F124080168880604D5E069D2
:1006D00021F01001216000E00120A84201DD471B4C
:1006E00000E00027A1697A1902EB0900081AA0614D
:1006F0002078C00602D42046FFF79EFD002608E0C1
:10070000D4E901211AF806009047206A401C761CA3
:1007100020624E45F4DB2078C0060AD52046FFF75C
:100720008BFD06E0D4E9012130209047206A401C6F
:100730002062381EA7F10107F4DC07E0D4E90121AB
:1007400018F805009047206A401C2062281EA5F179
:100750000105F3DC2046FFF785FD2078000602D571
:100760000220BDE8F0870120FBE7000001694A1C78
:1007700002610878704700B58FB0CDE901310021E2
:10078000059105497944CDE9031011466846FFF704
:10079000A5FE0FB000BD0000E5FFFFFF0A6802F8EC
:1007A000010B0A60704710B5436913B1AFF30080C5
:1007B00001E0FFF77AFD012010BD127800F124015D
:1007C0000A7000224A700122EDE711684FF0FF32F3
:1007D000E9E710B5436913B1AFF3008001E0FFF71B
:1007E000C9FD012010BD128800F12401828400227D
:1007F000C2840122EDE711684FF0FF32E9E72DE9ED
:10080000F04116460C46054600F01EF8036893F8C2
:100810000101012807D0FF2C12D8185D80B10120FA
:100820002C70BDE8F081D3F807013246214603F26F
:100830000713C7182846BC46BDE8F04100236047AF
:100840004FF0FF30EDE7000010B500F02BF8001D71
:1008500010BD00BF49150000754600F031F8AE46E6
:1008600005006946534620F00700854618B020B5BC
:10087000FFF7BCFCBDE820404FF000064FF000073A
:100880004FF000084FF0000BAC46ACE8C009ACE8F4
:10089000C009ACE8C009ACE8C00921F007018D46E9
:1008A00070470000004870473800002010B504462B
:1008B000AFF300802046BDE81040FFF783BC000086
:1008C00000487047180000204FF0013C50F8042BFE
:1008D00051F8043B9A4221D1A2EB0C03934313EA53
:1008E000CC1317D150F8042B51F8043B9A4215D180
:1008F000A2EB0C03934313EACC130BD150F8042B57
:1009000051F8043B9A4209D1A2EB0C03934313EA3A
:10091000CC13DBD04FF00000704700BFD01A01BAF3
:10092000B1FA81F101F0180122FA01F0CB40DBB2FB
:10093000C0B2C01AC1F120012CFA01F3D11A9143BF
:1009400011EAC311E6D1704701491820ABBEFEE79A
:100950002600020070470000FEE700002DE9F04F7E
:1009600083B0044616989C46029015981346019051
:10097000DDE90C070A46DDF85080DDE912A9DDE962
:10098000101BDDE90E65208101984FF0000EE06438
:10099000029884F800E0A4F8500040F60640C2F641
:1009A0001400C4F8520032206270A370C4F804C06E
:1009B000E760268265632187C4F83CB0A4F840A0B4
:1009C000C4F84490A4F8488000F050F92046332140
:1009D000002200F063F8052000F048F9204633219A
:1009E000002200F05BF8052000F040F9204632219B
:1009F000002200F053F8052000F038F994F8521066
:100A00002046002200F04AF894F8531020460022B5
:100A100000F044F894F854102046002200F03EF80C
:100A200094F855102046002200F038F820460121A5
:100A3000002200F033F820460221002203B0BDE876
:100A4000F04F00F02BB8000080B5437890F802E03A
:100A50008B4290F800C098BF591E964598BFAEF1E2
:100A60000102D2B20CA39A5CBCF1000F11440BD06E
:100A7000BCF1100F18BF80BD41F08001C9B2002247
:100A8000BDE8804000F07CB841F08001C9B200228E
:100A9000BDE8804000F002B800401454B0B50446F0
:100AA0000D4640682189002A18BF012200F0FCF998
:100AB000606B218FC5F3001200F0F6F9E06BB4F81B
:100AC0004010C5F3401200F0EFF9606CB4F8481024
:100AD000C5F3801200F0E8F9E06CB4F85010EA09B0
:100AE00000F0E2F9E068218A002200F0DDF901203F
:100AF00000F0BCF8E068218A012200F0D5F901205D
:100B000000F0B4F8E068218A002200F0CDF901205D
:100B100000F0ACF8606B218F05F0010200F0C4F921
:100B2000E06BB4F84010C5F3400200F0BDF9606C12
:100B3000B4F84810C5F3800200F0B6F9E06CB4F8E0
:100B40005010C5F3C00200F0AFF9E068218A00221E
:100B500000F0AAF9012000F089F8E068218A01225A
:100B600000F0A2F9012000F081F8E068218A00225B
:100B700000F09AF90120BDE8B04000F077B800001D
:100B8000B0B504460D4640682189002A18BF0122ED
:100B900000F08AF96069218B05F0010200F084F908
:100BA000E069218CC5F3400200F07EF9606A218D76
:100BB000C5F3800200F078F9E06A218EC5F3C00227
:100BC00000F072F9606B218FC5F3001200F06CF930
:100BD000E06BB4F84010C5F3401200F065F9606CAA
:100BE000B4F84810C5F3801200F05EF9E06CB4F878
:100BF0005010EA0900F058F9E068218A002200F05C
:100C000053F9012000F032F8E068218A012200F057
:100C10004BF9012000F02AF8E068218A002200F058
:100C200043F90120BDE8B04000F020B8B0B50A7823
:100C3000002A08BFB0BD04464D1C07E0D1B22046D3
:100C40000122FFF72BFF15F8012B5AB1207800285D
:100C5000F4D01028F7D1D1B220460122FFF790FF3F
:100C6000F1E700BFB0BD000070470000B0B504461A
:100C700000F020F9054640F20800C2F200000078BA
:100C8000611C18BF044400BF00F014F9401BA042CF
:100C9000FAD3B0BD2DE9F04F82B041F20042C4F268
:100CA00001020E680423904208BF0323002E009324
:100CB00000F0F68040F20C4E4FF6FF7CC4F2010EBD
:100CC00000220124C1F2100C4FF0000A4FF000097D
:100CD00043E000BF012502F00C040F27A7402BEAD8
:100CE000070705FA04F43C4343F82640D1F804B062
:100CF00040F20045C4F201055FEACB332B6854BFD4
:100D000023EA080343EA08032B606B685FEA8B342D
:100D100054BF23EA080343EA08036B605FEACB246D
:100D2000AB6854BF23EA080343EA08035FEA8B2455
:100D3000AB60DEF800304FF0010454BF23EA080333
:100D400043EA0803CEF800300E680AF1010A36FAC9
:100D50000AF302F1040200F0A38004FA0AF816EA8A
:100D6000080FF1D04B68634512DC122B56D8DFE830
:100D700003F0350B45495555555555555555555560
:100D80005555554D510000BFD1F80C9046E000BFBD
:100D90004FF6FF77C1F22107BB420FDC0027C1F2FB
:100DA0001107BB421AD00027C1F21207BB4215D06F
:100DB0000027C1F22107BB4210D02FE00027C1F26B
:100DC0002207BB420AD00027C1F23107BB4205D03F
:100DD0000027C1F23207BB4220D100BF8B684BB164
:100DE000012B14BFC0F81480C0F810804FF0080920
:100DF00014E000BF4FF0040910E000BFCB6803F11E
:100E000008090BE04FF0000908E000BFCB6803F1D0
:100E1000040903E0CB6803F10C0900BF1346054643
:100E2000BAF1080F24BF203B04352E680F279F40DE
:100E3000BE4309FA03F333432B60CB79DB067FF51E
:100E400083AF41F21804C4F2020423684FEA9A0601
:100E500043F001032360236840F6000403F001031C
:100E60000193019B40F20043C4F20103A3F57E739A
:100E700053F826B0C4F20104A0420FD040F600445B
:100E8000C4F20104A0423FF425AF41F20004C4F2D1
:100E90000104009DA04208BF02251CE700251AE7B7
:100EA00002B0BDE8F08F0000002A08BF090401610C
:100EB0007047000040F22810C2F20000006870473E
:100EC00040F2080040F22811C2F20000C2F2000114
:100ED00000780A68104408607047000080B542F24C
:100EE0000000C4F20200016841F01001016003201B
:100EF00000F08AF80F2000F005F800F027F8002035
:100F000080BD000070B540F20806C2F2000640F253
:100F100010013278C2F200014FF47A730968B3FB12
:100F2000F2F20446B1FBF2F1084600F037FB0F2C59
:100F30004FF0010508D838B94FF0FF3021460022A4
:100F4000002500F035F87460284670BD82B041F28B
:100F50001800C4F202000168022241F001010160A0
:100F6000016801F0010101910199416841F080514E
:100F70004160406800F08050009000980420C4F266
:100F80000100016862F31A61016002B0704700005D
:100F9000002848BF704700F01F01012202FA01F14A
:100FA0004EF200124009CEF2000242F820107047C3
:100FB00010B54EF60C5CCEF2000CDCF80030C3F33A
:100FC000022E8EF00704042C28BF0424BEF1030374
:100FD0004FF0FF3E0EFA04F438BF0023A1439940BE
:100FE0000EFA03F39A43114300F00F02043A6244ED
:100FF00009010C3200F16043B0F1FF3FC8BF03F5B7
:101000006442117010BD00004EF60C51CEF200018A
:101010000A684FF6FF031A4060F30A2242F080602C
:1010200040F0FD70086070472DE9F04381B0002862
:1010300000F0858042F20008C4F202080446D8F8A5
:1010400000000D4600F0070088420CD2D8F80000DE
:1010500020F007002843C8F80000D8F8000000F08E
:101060000700A8426BD1206841F204098107C4F24D
:10107000020917D5410705D5D9F8001041F4E06100
:10108000C9F80010010705D5D9F8001041F46051E6
:10109000C9F80010D9F80010A26821F0F00111433E
:1010A000C9F80010C00741D1D8F8000000F00700CF
:1010B000A8420CD9D8F8000020F007002843C8F84F
:1010C0000000D8F8000000F00700A84237D12068DF
:1010D000410707D5D9F80010E26821F4E061114317
:1010E000C9F80010000708D5D9F80000216920F4DC
:1010F000605040EAC100C9F80000D9F8002002F0B1
:101100000C00082841F20020C0F27A0050D141F6CC
:101110001B63C2F38341C0F60003595CD2033BD486
:1011200040F60010C0F23D00484341E060680228EC
:101130000AD001282AD159F8041C890308D40120B7
:1011400001B0BDE8F08300BF59F8041C8901F6D551
:10115000D9F8001021F003010843C9F80000FFF797
:10116000A9FE064641F28837D9F80000616800F010
:101170000C00B0EB810F97D0FFF79CFE801BB842AC
:10118000F2D9032001B0BDE8F08300BF59F8041C78
:101190008907D4D5DCE700BFD9F8002041F6096300
:1011A000C2F34042C0F600039A5C4843B0FBF2F041
:1011B000D9F8001041F60B62C1F30311C0F600022A
:1011C000515C40F2100220FA01F140F20C00C2F230
:1011D00000000068C2F200021160FFF793FE0020D9
:1011E00001B0BDE8F08300002DE9F04182B0002895
:1011F00068D00446007841F20006C007C4F2020637
:1012000025D0706800F00C0004281BD0706800F036
:101210000C00082802D17068C00313D4606800284D
:1012200000F06881B0F5A02F00F07C81B0F5803F20
:1012300000F07C81306820F480303060306820F429
:10124000802076E13068800301D56068D0B32078D3
:10125000800718D5706810F00C0F07D0706800F088
:101260000C0008286ED17068C0036BD4306880070A
:1012700002D52069012825D13068616920F0F80085
:1012800040EAC1003060207800071FD42078400772
:1012900032D4E56995B1706800F00C00082840F080
:1012A0008F80012D0ED07068216A00F480328A424E
:1012B00008D1616A00F47010884203D1002002B0A6
:1012C000BDE8F081012002B0BDE8F081A0690028EE
:1012D00062D00020C4F242200121C0F88014FFF740
:1012E000E9FD0546706A800700F18C80FFF7E2FD9A
:1012F000401B0228F6D92AE1F06910F0805808D185
:10130000F06940F08050F061F06900F0805000908A
:10131000009847F20007C4F200073868C00529D4D6
:10132000386840F480703860FFF7C4FD054600BFA0
:101330003868C0051ED4FFF7BDFD401B6428F7D9EF
:1013400005E100BF2069002840F20000C4F24220FD
:1013500000F0828001210160FFF7ACFD054600BF6F
:10136000306880073FF588AFFFF7A4FD401B0228D7
:10137000F6D9ECE0E068002800F08080052800F055
:101380009780012800F09880306A20F001003062D8
:10139000306A20F0040092E00020C4F242200021D4
:1013A000C0F88014FFF786FD054600BF706A80070D
:1013B0007FF56CAFFFF77EFD401B0228F6D9C6E033
:1013C0000027C4F2422700203866FFF773FD022D84
:1013D00005460BD13068800140F1BE80FFF76AFD01
:1013E000401B02284FF00300F4D968E73068800101
:1013F0007FF564AFFFF75EFD401B02284FF003004E
:10140000F4D95CE740F21000C2F20000006844F634
:10141000D351C1F26201A0FB0101480A019000BF53
:1014200000BF0198411E002801913FF42FAF00BF7B
:101430000198411E002801913FF428AF00BF019898
:10144000411E002801913FF421AF00BF0198411EC9
:1014500000280191E4D119E700210160FFF72AFD7E
:10146000054600BF306880077FF50DAFFFF722FD0E
:10147000401B02284FF00300F4D920E7306A20F027
:1014800001003062306A20F004003062FFF712FD84
:10149000054641F2883700BF306A800720D5FFF744
:1014A00009FD401BB8424FF00300F5D907E700BF24
:1014B000306A40F004003062306A40F0010030626F
:1014C000FFF7F8FC054641F2883700BF306A800715
:1014D00006D4FFF7EFFC401BB842F7D937E000BF56
:1014E000B8F1000F7FF4D5AEF06920F08050F061C4
:1014F000CFE600BF306820F480303060306820F4E0
:1015000080203060FFF7D6FC054600BF30688003BE
:101510007FF59DAEFFF7CEFC401B64284FF0030023
:10152000F4D9CCE6306840F480203060306840F474
:1015300080303060FFF7BEFC054600BF3068800396
:101540003FF585AEFFF7B6FC401B6428F6D90320B3
:1015500002B0BDE8F08100BF206AB0F5803F05D140
:101560007168A26821F40031114371607168626A88
:1015700021F4741110430843706001203866FFF7AE
:1015800099FC0446306880013FF598AEFFF792FC65
:10159000001B02284FF00300F4D990E6411E002002
:1015A000B0EB116F1CBF012070474EF21002CEF25B
:1015B000000251604EF62351CEF20001F0230B7071
:1015C000072190601160704770470000704700006D
:1015D00010B590F83C20012A4FF0020233D080F879
:1015E0003D200268D2F804E0D2F808C00C682EF062
:1015F0007003234340F2FF74C4F20004A24253601C
:101600000ADCB2F1804F13D040F20043C4F2000371
:101610009A420DD011E000BF42F60043C4F201032C
:101620009A4205D040F60003C4F200039A4204D166
:1016300049682CF08003194391600121002280F851
:101640003D1080F83C20104610BD0000002804BF6B
:101650000120704710B5044690F83D0028B90020DD
:1016600084F83C00204600F067F8022084F83D0032
:10167000206840F2FF730268C4F2000342F6004C97
:101680009842C4F2010C15DCB0F1804F1AD040F240
:101690000041C4F20001884214D0984218DCB0F135
:1016A000804F1DD040F20041C4F20001884217D0A3
:1016B0001AE000BF604505D040F60001C4F2000109
:1016C0008842EAD1A16822F070020A439842E6DD1E
:1016D000604505D040F60001C4F20001884203D104
:1016E000216922F440720A43A36922F08001D4F8F0
:1016F00004E0E268194360450160C262C0F828E076
:1017000002D16169CCF8301001214161002084F8D8
:10171000461084F83E1084F83F1084F8401084F896
:10172000411084F8421084F8431084F8441084F87F
:10173000451084F83D1010BD80B582B00068B0F14E
:10174000804F1CBF02B080BD41F21C00C4F20200F9
:101750000168002241F0010101600068002100F0F1
:101760000100019001981C20FFF722FC1C2002B010
:10177000BDE88040FFF70CBC90F83D1001291CBF6C
:1017800001207047022180F83D10006840F2FF728E
:10179000C168C4F20002904241F00101C16009DC5D
:1017A000B0F1804F12D040F20041C4F200018842F3
:1017B0000CD012E042F60041C4F20101884205D08B
:1017C00040F60001C4F20001884206D1816801F0B0
:1017D0000701062904BF00207047016841F001019C
:1017E000016000207047000080B590F83C20012A7D
:1017F0004FF0020200F0BF8080F83D20D0F800C01A
:101800004FF67772DCF8083023EA0202CCF80820A1
:101810000B683F2B1CDD5F2B20DD602B50D0B3F518
:10182000005F6DD0702B40F0A080D1E901E3C96862
:10183000DCF8082043EA0E0322F47F4243EA012148
:101840001143CCF80810DCF8081041F077018AE069
:101850001F2B29DC63B3102B2AD086E0402B63D0EA
:10186000502B40F08280D1F804E0C968DCF82030C9
:10187000DCF8202022F00102CCF82020DCF818202F
:1018800022F0F00242EA011123F00A0242EA0E02BB
:10189000CCF81810CCF82020DCF8081041F05701E3
:1018A00021F020015FE000BF202B01D0302B5CD164
:1018B000DCF8081021F07001194341F0070152E0F3
:1018C000D1F804E0C968DCF8203023F01003CCF82C
:1018D0002030DCF81830DCF8202023F4704322F0AC
:1018E000A00243EA013142EA0E12CCF81810CCF8FB
:1018F0002020DCF8081041F0670121F0100132E0EF
:10190000D1E901E3C968DCF8082043EA0E0322F4B8
:101910007F4243EA01211143CCF80810DCF808109B
:1019200041F480411FE000BFD1F804E0C968DCF851
:101930002030DCF8202022F00102CCF82020DCF856
:10194000182022F0F00242EA011123F00A0242EAD2
:101950000E02CCF81810CCF82020DCF8081041F06A
:10196000470121F03001CCF808100121002280F855
:101970003D1080F83C20104680BD000070470000FC
:1019800010B5016804460869800744BFC8685FEA6B
:10199000807039D40869400744BFC8685FEA407066
:1019A0003ED40869000744BFC8685FEA007045D4A8
:1019B0000869C00644BFC8685FEAC0604AD40869C5
:1019C000C0071CBFC8685FEAC07051D10869000633
:1019D00044BFC8685FEA006052D40869400644BF4B
:1019E000C8685FEA406053D40869800646BFC8688B
:1019F0005FEA806010BD6FF0200220460A61BDE8FA
:101A00001040FFF7E3BD00BF6FF002000861012046
:101A100020778869800743D02046FFF7AFFF45E075
:101A20006FF00400086102202077886910F4407F7D
:101A300040D02046FFF7A2FF42E000BF6FF0080051
:101A4000086104202077C86980073DD02046FFF751
:101A500095FF3FE06FF01000086108202077C8690B
:101A600010F4407F3AD02046FFF788FF3CE000BFEB
:101A70006FF001000861204600F03EF82168A5E7FC
:101A80006FF0800008612046FFF79EFD2168A4E703
:101A90006FF040000861204600F04CF82168A3E791
:101AA000204600F025F8204600F024F821680020A8
:101AB00020776FE7204600F01BF8204600F01AF868
:101AC0002168002020776CE7204600F011F82046BE
:101AD00000F010F821680020207769E7204600F028
:101AE00007F8204600F006F821680020207766E716
:101AF000704700007047000040F27801C2F2000118
:101B000000680969884218BF704740F20000C2F2BD
:101B10000000D0E9001201323C2A426002BF0131CC
:101B20000022C0E900123C2904BF0021C0E90011D5
:101B30007047000070470000FEE70000FEE700006D
:101B4000FEE700007047000070470000FFF7B8B9DB
:101B50007047000040F28800C2F20000FFF710BF9B
:101B6000FEE700009CB0FFF7B9F912AC201D24215C
:101B7000FEF778FD02201290012016901020179099
:101B8000002520461995FFF72FFB28B1EFF31080B1
:101B900072B600BFFEE700BF0F20CDE90C050CA810
:101BA0000021CDE90E551095FFF73EFA20B1EFF375
:101BB000108072B6FEE700BF41F21800C4F20200C6
:101BC000016840F6000841F0080101600168C4F2B4
:101BD000010801F0080112911299016808F5806965
:101BE00041F00401016000684FF4784100F0040006
:101BF00012901298484600224FF478440027FFF7CD
:101C000053F940464FF4F85100224FF4F85AFFF7C9
:101C10004BF9129412AC0126022548462146CDE923
:101C200013671595FFF736F840462146CDE912A611
:101C3000CDE91475FFF72EF840F27804C2F20004E3
:101C40004FF08041204640F8101F40F23F6141F2C2
:101C500087321597CDE91377CDE90C77C0E90117E5
:101C6000C0E903278761FFF7F1FC28B1EFF310808B
:101C700072B600BFFEE700BF4FF4805004F11007BA
:101C8000129012A93846FFF7AFFD28B1EFF310808C
:101C900072B600BFFEE700BF0CA93846FFF798FCFC
:101CA00020B1EFF3108072B6FEE700BF4FF4806002
:101CB0004FF4007140F2D006CDE908180A904FF4B5
:101CC00080704FF400414FF400624FF48053C2F231
:101CD0000006CDE90038CDE90229CDE904180690C7
:101CE0003046102102224346CDF81C80FEF736FE16
:101CF0003846FFF741FD40F200070FF26C08C2F2D0
:101D000000070FF270090FF2740A0FF2780B1EA58C
:101D1000304600210022FEF797FE30464146FEF78E
:101D200085FF304605210122FEF78EFE3A685146B6
:101D300020460A2AB8BF4946FEF76AFA30462146CD
:101D4000FEF774FF304608210122FEF77DFE7A6817
:101D5000294620460A2AB8BF5946FEF759FA3046A6
:101D60002146FEF763FFD3E744454D2054696D6576
:101D7000723A00003025643A000000002532643ACF
:101D800000000000302564002532640030380A2845
:101D900001D20120704700207047000010B50029D3
:101DA0000AD00878002807D005487844FEF78CFD53
:101DB000002801D0002010BD0248784410BD00006A
:101DC000A20000009A0000000000000000000000D7
:101DD0003031323334353637383941424344454661
:101DE000403058003031323334353637383961625B
:101DF000636465664030780004000008000000005D
:101E000000000002000100001001020000000000BC
:101E10000000000102030406070809020304050686
:101E20000708090A0B0C0D0E0F101000601F0008A8
:101E3000000000201800000028010008781F00089A
:101E400018000020180700004401000810010000DD
:101E500043000000F8FFFFFF00404040404040408A
:101E6000404041414141414040404040404040406D
:101E70004040404040404040400502020202020211
:101E80000202020202020202022020202020202060
:101E90002020200202020202020290909090909074
:101EA0001010101010101010101010101010101032
:101EB00010101010020202020202888888888888A6
:101EC0000808080808080808080808080808080892
:101ED000080808080202020240000000000000009A
:101EE00000000000000000000000000000000000F2
:101EF00000000000000000000000000000000000E2
:101F000000000000000000000000000000000000D1
:101F100000000000000000000000000000000000C1
:101F200000000000000000000000000000000000B1
:101F300000000000000000000000000000000000A1
:101F40000000000000000000000000000000000091
:101F50000000000000000000000000000000000081
:101F60003B000000320000000100000010000000F3
:081F70000024F4000000000051
:04000005080000ED02
:00000001FF
