:020000040800F2
:100000007806002089010008F50D00080D0D000894
:10001000F10D0008B1020008090E00080000000000
:10002000000000000000000000000000FD0D0008BE
:10003000B502000800000000F90D0008010E0008DC
:10004000A3010008A3010008A3010008A301000800
:10005000A3010008A3010008A3010008A3010008F0
:10006000A3010008A3010008A3010008A3010008E0
:10007000A3010008A3010008A3010008A3010008D0
:10008000A3010008A3010008A3010008A3010008C0
:10009000A3010008A3010008A3010008A3010008B0
:1000A000A3010008A3010008A3010008A3010008A0
:1000B000A3010008A3010008A3010008A301000890
:1000C000A3010008A3010008A3010008A301000880
:1000D000A3010008A3010008A3010008A301000870
:1000E000A3010008A3010008A301000800F002F822
:1000F00000F03AF80AA090E8000C82448344AAF188
:100100000107DA4501D100F02FF8AFF2090EBAE885
:100110000F0013F0010F18BFFB1A43F0010318473B
:100120000417000024170000103A24BF78C878C1D3
:10013000FAD8520724BF30C830C144BF04680C60ED
:10014000704700000023002400250026103A28BF35
:1001500078C1FBD8520728BF30C148BF0B60704739
:100160001FB51FBD10B510BD00F06CF81146FFF7AC
:10017000F7FF00F04BFE00F08AF803B4FFF7F2FF40
:1001800003BC00F08DF8000009488047094800478B
:10019000FEE7FEE7FEE7FEE7FEE7FEE7FEE7FEE737
:1001A000FEE7FEE704480549054A064B7047000094
:1001B000050E0008ED0000087800002078060020F9
:1001C00078020020780200204FF0000200B51346AC
:1001D00094469646203922BFA0E80C50A0E80C5067
:1001E000B1F12001BFF4F7AF090728BFA0E80C5018
:1001F00048BF0CC05DF804EB890028BF40F8042B11
:1002000008BF704748BF20F8022B11F0804F18BF7D
:1002100000F8012B704770477047704710B500F029
:1002200009F8006810BD10B5044600F003F804603A
:1002300010BD0000004870471000002000487047C3
:10024000100000207546FFF7F9FFAE46050069462D
:10025000534620F00700854618B020B5FFF7A2FFEF
:10026000BDE820404FF000064FF000074FF00008B7
:100270004FF0000BAC46ACE8C009ACE8C009ACE8F4
:10028000C009ACE8C00921F007018D46704710B5E0
:100290000446AFF300802046BDE81040FFF76DBF75
:1002A00001491820ABBEFEE726000200704700009F
:1002B000FEE7000070470000B0B5044600F020F9EA
:1002C000054640F20000C2F200000078611C18BF31
:1002D000044400BF00F014F9401BA042FAD3B0BDA3
:1002E0002DE9F04F82B041F20042C4F201020E68E3
:1002F0000423904208BF0323002E009300F0F680F1
:1003000040F20C4E4FF6FF7CC4F2010E0022012495
:10031000C1F2100C4FF0000A4FF0000943E000BF9B
:10032000012502F00C040F27A7402BEA070705FA66
:1003300004F43C4343F82640D1F804B040F20045B1
:10034000C4F201055FEACB332B6854BF23EA0803EC
:1003500043EA08032B606B685FEA8B3454BF23EADF
:10036000080343EA08036B605FEACB24AB6854BF21
:1003700023EA080343EA08035FEA8B24AB60DEF854
:1003800000304FF0010454BF23EA080343EA080396
:10039000CEF800300E680AF1010A36FA0AF302F1CB
:1003A000040200F0A38004FA0AF816EA080FF1D05C
:1003B0004B68634512DC122B56D8DFE803F0350B8F
:1003C0004549555555555555555555555555554D01
:1003D000510000BFD1F80C9046E000BF4FF6FF7708
:1003E000C1F22107BB420FDC0027C1F21107BB425B
:1003F0001AD00027C1F21207BB4215D00027C1F264
:100400002107BB4210D02FE00027C1F22207BB42D8
:100410000AD00027C1F23107BB4205D00027C1F244
:100420003207BB4220D100BF8B684BB1012B14BFF8
:10043000C0F81480C0F810804FF0080914E000BF25
:100440004FF0040910E000BFCB6803F108090BE08E
:100450004FF0000908E000BFCB6803F1040903E096
:10046000CB6803F10C0900BF13460546BAF1080F2B
:1004700024BF203B04352E680F279F40BE4309FA56
:1004800003F333432B60CB79DB067FF583AF41F277
:100490001804C4F2020423684FEA9A0643F00103E9
:1004A0002360236840F6000403F001030193019BDD
:1004B00040F20043C4F20103A3F57E7353F826B063
:1004C000C4F20104A0420FD040F60044C4F201047B
:1004D000A0423FF425AF41F20004C4F20104009DA4
:1004E000A04208BF02251CE700251AE702B0BDE8BC
:1004F000F08F0000002A08BF090401617047000066
:1005000040F27000C2F200000068704740F2000044
:1005100040F27001C2F20000C2F2000100780A68E5
:10052000104408607047000080B542F20000C4F239
:100530000200016841F010010160032000F07AF828
:100540000F2000F005F800F027F8002080BD000023
:1005500070B540F20006C2F2000640F2080132789F
:10056000C2F200014FF47A730968B3FBF2F2044659
:10057000B1FBF2F1084600F027FB0F2C4FF001050C
:1005800008D838B94FF0FF3021460022002500F08E
:1005900025F87460284670BD82B041F21800C4F29C
:1005A00002000168022241F001010160016801F0CE
:1005B000010101910199416841F080514160406819
:1005C00000F08050009000980420C4F201000168FF
:1005D00062F31A61016002B07047000010B54EF678
:1005E0000C5CCEF2000CDCF80030C3F3022E8EF06F
:1005F0000704042C28BF0424BEF103034FF0FF3E80
:100600000EFA04F438BF0023A14399400EFA03F315
:100610009A43114300F00F02043A624409010C327C
:1006200000F16043B0F1FF3FC8BF03F564421170B1
:1006300010BD00004EF60C51CEF200010A684FF6D4
:10064000FF031A4060F30A2242F0806040F0FD7020
:10065000086070472DE9F04381B0002800F08580E4
:1006600042F20008C4F202080446D8F800000D4621
:1006700000F0070088420CD2D8F8000020F00700F4
:100680002843C8F80000D8F8000000F00700A8428E
:100690006BD1206841F204098107C4F2020917D521
:1006A000410705D5D9F8001041F4E061C9F8001000
:1006B000010705D5D9F8001041F46051C9F80010C0
:1006C000D9F80010A26821F0F0011143C9F8001018
:1006D000C00741D1D8F8000000F00700A8420CD9AB
:1006E000D8F8000020F007002843C8F80000D8F828
:1006F000000000F00700A84237D12068410707D565
:10070000D9F80010E26821F4E0611143C9F8001043
:10071000000708D5D9F80000216920F4605040EAAC
:10072000C100C9F80000D9F8002002F00C00082828
:1007300041F20020C0F27A0050D141F61403C2F316
:100740008341C0F60003595CD2033BD440F600104D
:10075000C0F23D00484341E0606802280AD0012809
:100760002AD159F8041C890308D4012001B0BDE83E
:10077000F08300BF59F8041C8901F6D5D9F80010A0
:1007800021F003010843C9F80000FFF7B9FE06464F
:1007900041F28837D9F80000616800F00C00B0EB36
:1007A000810F97D0FFF7ACFE801BB842F2D903202F
:1007B00001B0BDE8F08300BF59F8041C8907D4D507
:1007C000DCE700BFD9F8002041F2F873C2F34042E1
:1007D000C0F600039A5C4843B0FBF2F0D9F8001071
:1007E00041F2FA72C1F30311C0F60002515C40F20B
:1007F000080220FA01F140F20400C2F20000006891
:10080000C2F200021160FFF7A3FE002001B0BDE8B4
:10081000F08300002DE9F04182B0002868D0044642
:10082000007841F20006C007C4F2020625D07068C5
:1008300000F00C0004281BD0706800F00C000828A1
:1008400002D17068C00313D46068002800F068818A
:10085000B0F5A02F00F07C81B0F5803F00F07C81E6
:10086000306820F480303060306820F4802076E1F9
:100870003068800301D56068D0B32078800718D530
:10088000706810F00C0F07D0706800F00C0008289A
:100890006ED17068C0036BD43068800702D52069C0
:1008A000012825D13068616920F0F80040EAC100D4
:1008B0003060207800071FD42078400732D4E569E3
:1008C00095B1706800F00C00082840F08F80012D71
:1008D0000ED07068216A00F480328A4208D1616AC1
:1008E00000F47010884203D1002002B0BDE8F0810E
:1008F000012002B0BDE8F081A069002862D000208C
:10090000C4F242200121C0F88014FFF7F9FD05462A
:10091000706A800700F18C80FFF7F2FD401B02280F
:10092000F6D92AE1F06910F0805808D1F06940F05A
:100930008050F061F06900F080500090009847F21C
:100940000007C4F200073868C00529D4386840F4AD
:1009500080703860FFF7D4FD054600BF3868C005D9
:100960001ED4FFF7CDFD401B6428F7D905E100BF79
:100970002069002840F20000C4F2422000F082808A
:1009800001210160FFF7BCFD054600BF306880070C
:100990003FF588AFFFF7B4FD401B0228F6D9ECE025
:1009A000E068002800F08080052800F0978001288A
:1009B00000F09880306A20F001003062306A20F048
:1009C000040092E00020C4F242200021C0F880140C
:1009D000FFF796FD054600BF706A80077FF56CAF94
:1009E000FFF78EFD401B0228F6D9C6E00027C4F2AF
:1009F000422700203866FFF783FD022D05460BD104
:100A00003068800140F1BE80FFF77AFD401B02286C
:100A10004FF00300F4D968E7306880017FF564AFD8
:100A2000FFF76EFD401B02284FF00300F4D95CE78E
:100A300040F20800C2F20000006844F6D351C1F24F
:100A40006201A0FB0101480A019000BF00BF0198AC
:100A5000411E002801913FF42FAF00BF0198411EB5
:100A6000002801913FF428AF00BF0198411E0028E3
:100A700001913FF421AF00BF0198411E0028019170
:100A8000E4D119E700210160FFF73AFD054600BFF8
:100A9000306880077FF50DAFFFF732FD401B02285D
:100AA0004FF00300F4D920E7306A20F001003062F3
:100AB000306A20F004003062FFF722FD054641F263
:100AC000883700BF306A800720D5FFF719FD401B2B
:100AD000B8424FF00300F5D907E700BF306A40F095
:100AE00004003062306A40F001003062FFF708FD18
:100AF000054641F2883700BF306A800706D4FFF709
:100B0000FFFC401BB842F7D937E000BFB8F1000F37
:100B10007FF4D5AEF06920F08050F061CFE600BFE1
:100B2000306820F480303060306820F480203060FD
:100B3000FFF7E6FC054600BF306880037FF59DAEF9
:100B4000FFF7DEFC401B64284FF00300F4D9CCE62D
:100B5000306840F480203060306840F4803030608D
:100B6000FFF7CEFC054600BF306880033FF585AE39
:100B7000FFF7C6FC401B6428F6D9032002B0BDE88D
:100B8000F08100BF206AB0F5803F05D17168A2688E
:100B900021F40031114371607168626A21F47411AB
:100BA00010430843706001203866FFF7A9FC044633
:100BB000306880013FF598AEFFF7A2FC001B0228C9
:100BC0004FF00300F4D990E6411E0020B0EB116F06
:100BD0001CBF012070474EF21002CEF2000251609D
:100BE0004EF62351CEF20001F0230B7007219060E6
:100BF00011607047B0B541F60A01C0F600010D5C06
:100C000040F60044C4F2010405F001022046202110
:100C1000FFF770FC204608210122FFF76BFC2046FD
:100C200008210022FFF766FCC5F340022046202180
:100C3000FFF760FC204608210122FFF75BFC2046FD
:100C400008210022FFF756FCC5F380022046202130
:100C5000FFF750FC204608210122FFF74BFC2046FD
:100C600008210022FFF746FCC5F3C00220462021E0
:100C7000FFF740FC204608210122FFF73BFC2046FD
:100C800008210022FFF736FCC5F300122046202180
:100C9000FFF730FC204608210122FFF72BFC2046FD
:100CA00008210022FFF726FCC5F340122046202130
:100CB000FFF720FC204608210122FFF71BFC2046FD
:100CC00008210022FFF716FCC5F3801220462021E0
:100CD000FFF710FC204608210122FFF70BFC2046FD
:100CE00008210022FFF706FCEA0920462021FFF731
:100CF00001FC204608210122FFF7FCFB20460821C9
:100D00000022BDE8B040FFF7F5BB0000FEE70000A1
:100D1000B0B50023C3F6F07300220C46054600F080
:100D2000F9F800F043FBC0B2FFF764FF0023C4F200
:100D3000240328462146002200F0ECF800F036FBA0
:100D4000C0B2FFF757FF0023C4F2590328462146DB
:100D5000002200F0DFF800F029FBC0B2FFF74AFFE5
:100D600044F20003C4F28F0328462146002200F01B
:100D7000D1F800F01BFBC0B2FFF73CFF48F60003C0
:100D8000C4F2C30328462146002200F0C3F800F055
:100D90000DFBC0B2FFF72EFF46F60023C4F2F803A6
:100DA00028462146002200F0B5F800F0FFFAC0B254
:100DB000FFF720FF48F28043C4F22E132846214655
:100DC000002200F0A7F800F0F1FAC0B2FFF712FF1E
:100DD00041F2D023C4F2631328462146002200F0DA
:100DE00099F800F0E3FAC0B2BDE8B040FFF702BFE7
:100DF000FEE70000FEE700007047000070470000BB
:100E0000FFF784BB70470000FEE7000090B0FFF7DB
:100E10008BFB06AC201D2421FFF7D6F9022006909B
:100E200001200A9010200B90002520460D95FFF719
:100E3000F1FC28B1EFF3108072B600BFFEE700BFEF
:100E40000F20CDE9010501A80021CDE90355059545
:100E5000FFF700FC20B1EFF3108072B6FEE700BF91
:100E600041F21800C4F20200016840F6004441F06B
:100E7000040101600168C4F2010401F0040106915B
:100E800006990168002241F00801016000683821DC
:100E900000F0080006900698204638250026FFF747
:100EA00029FB0120CDE907060220099006A920466A
:100EB0000695FFF715FA204608210022FFF71AFBD6
:100EC000204610210022FFF715FB2046202100229A
:100ED000FFF710FB46F66A61C4F249114FF000407B
:100EE000FFF716FF204610210122FFF703FB012028
:100EF000FFF7E2F9204610210022FFF7FBFA01205C
:100F0000FFF7DAF9FEE7002213461046114600F01B
:100F1000F3B8000070B514461D460E46002814BFF5
:100F200001210021314321F00041C1F17F6101F134
:100F3000E041C90F16D1002C14BF01210021294323
:100F400021F00041C1F17F6101F1E041C90F09D1F8
:100F50001449B1EB460F08BF00281CD0690008BF38
:100F6000002C18D0314600F09FFA024640F2FF7084
:100F700030EA11500DD0F017B0EBE17F09D00846F0
:100F800065F31E0084460B462046614600F03AFB9E
:100F90000246104670BD0120FFF745F9BDE87040DC
:100FA000FFF7B1BF0000E0FF10B591EA030F48BFA3
:100FB00083F0004300F13A83841A71EB030C05D2ED
:100FC000121943EB0C03001B61EB0C014FEA1154A7
:100FD000A4EB135CDFF81CE11EEA430F18BF9EEA86
:100FE000445F00F0748021EA045123EA0E0343F4C5
:100FF0008013DCF1200E32D322FA0CFE10EB0E002F
:1010000023FA0CFE41EB0E01CCF1200E03FA0EFE8A
:1010100010EB0E00CCF1200E51F10001B1F5801F54
:1010200032D201EB045112FA0EF2BDE8104058BF63
:101030007047401C38BF5FEA420218BF7047002863
:1010400014BF20F0010041F100014FEA410313F504
:10105000001F38BF7047A1F1C04100F0CDBA012A8E
:1010600043EB0302ACF1200CDCF11F0E32BF4FF05A
:10107000000E23FA0CF310EB030041EB0451B4EB28
:10108000115FD0D0A1EB045101F58011490801EBAB
:1010900004515FEA30000ED350F1000038BF12FA5D
:1010A0000EFE08D1BDE81040C9E7401C38BF5FEA1A
:1010B0004202CAD1C3E7BDE810404FEA410313F52D
:1010C000001F38BF7047A1F1C04100F095BA9EEAF9
:1010D000445F08D011EA5E0FBDE8104004BF01F084
:1010E000004100207047BDE8104070B500F08DF958
:1010F00064FBBE3E0000E0FF2DE9C04130B4DFF8E4
:10110000A4C23CEA111418BF3CEA131400F0ED80AD
:101110001CEA111481EA030544EAD57418BF1CEADD
:10112000131500F0C880A4EB050404F17F7404F5E6
:1011300000344FF0004545EAC12145EAC32341EAA6
:10114000505143EA52534FEAC0204FEAC22299421B
:1011500008BF904200F09D804FEA13650FF24416DD
:10116000765D4FEA134506FB05F7C7F1807706FB6E
:1011700007F74FEAD737A7FB03687642A7FB06CEEF
:10118000C8F5803838BFA8F1010807FB08E6A6FBC0
:10119000028C4FF0000EE6FB03CEDCF1000CCEF12A
:1011A000004E38BFAEF1010EA6FB0C584FF0000701
:1011B000E6FB0E87A1FB08C6A0FB07CE16EB0E06CA
:1011C0004FF0000545F10005E1FB076515F1E04E24
:1011D0007EBFA4F580345FEA46066D4116F18007B4
:1011E00045F100054FEA172747EA05674FEA15253D
:1011F0004FEA0666A6F1DE46B6F1805F20D9384692
:1012000005EBC47124F0010C01EB0C11BCF1FE6F75
:1012100002D8F0BCBDE8008124425CBF01F5801E0D
:101220009EEAC47F02D4F0BCBDE80081244200F1F4
:101230003980A1F1C041F0BCBDE8004100F0DCB94B
:101240004FEAD02040EA41504FEAD1214FEAD22262
:1012500042EA43524FEAD323A7FB028607FB036609
:1012600005FB02661EEA0E0F58BFA6EB0056B6EB52
:1012700000564FEA520E4EEAC37E18EB0E0E56EBA6
:10128000530EBCD518EB02085E417F1C55F10005DA
:10129000B5E74FF480154FF000074FF000064FF010
:1012A0000008ACE701F1C04101F000414FF000003F
:1012B000F0BCBDE800810CEA131511EA0C1F00D048
:1012C0000CE013EA0C1F00F026804FF0000081EACA
:1012D000030101F00041F0BCBDE80081F0BCBDE8B5
:1012E000004181EA030100F087B9F0BCBDE800418C
:1012F00070B500F08AF800BF097EFC3E00F007B828
:101300004FF0000081EA030101F00041704781EADB
:10131000030100F071B9F0BCBDE8004122494FF073
:1013200000007047FFFDFBF9F7F5F4F2F0EEEDEB8E
:10133000E9E8E6E4E3E1E0DEDDDBDAD8D7D5D4D3D3
:10134000D1D0CFCDCCCBCAC8C7C6C5C4C2C1C0BF1F
:10135000BEBDBCBBBAB9B8B7B6B5B4B3B2B1B0AF25
:10136000AEADACABAAA9A8A8A7A6A5A4A3A3A2A109
:10137000A09F9F9E9D9C9C9B9A99999897979695C4
:1013800095949393929191908F8F8E8E8D8C8C8B60
:101390008B8A8989888887878685858484838382E8
:1013A000828181800000FF070000F87F4FEA41033F
:1013B0004FEA5353A3F58063D3F11E03C8BFD3F1A3
:1013C000210C0CDD4FF0004242EAC12242EA5052A9
:1013D00032FA03FC8CEAE17CACEBE1707047102B35
:1013E000C4BF0020704703F5787CBCF1FF3F04D0F8
:1013F0006FF0004282EA2100704770B500F005F8F6
:101400004992248000207047F2E70EF1020E2EF080
:10141000030E5EF8046B364205D4012A43EB030544
:1014200015F5001F12D8012841EB010C1CF5001F17
:101430000CD80ED14FEAD17C0CEB4C0C0CF1020C09
:1014400015F5001F08BF4CEBD37C04E04FF0080CEF
:1014500001E04FEAD37C0CEB4C0526FA05F606F0CA
:101460000706B6F1040C06D20EEB860CBDE8704000
:101470004CF0010C6047DFE80CF0090B02024FF062
:101480000041A1F500214FF0000070BD1946104643
:10149000012851EB010418BFD4F5001484BF0020CB
:1014A00001F0004170BD000070B5DFF844C13CEAB6
:1014B000111418BF3CEA131500F08F8011F1004F92
:1014C0000CEA11141CEA131568BF45F0050518BF96
:1014D00011EA0C1F00F0798021EA4C1123EA4C1329
:1014E00041F4801143F480132E46A5F58035AC42BB
:1014F0003DDDA4F58036801A994109D54042C1F1FD
:10150000000134BFB1F10101B1F1000185F0010525
:1015100011F4F01F08D011F4801FE8D1400041EB16
:101520000101A4F58034F6E721F00041B1FA81F61B
:10153000202E04BFB0FA80FE0EF12006A6F10B06A5
:10154000A4EB0644B6F1200E0CD2C6F1200E01FA2F
:1015500006F120FA0EF641EA0601CEF1200600FA65
:1015600006F003E000FA0EF14FF00000BFE750EA8A
:10157000410E23D04FEA244EBEEB254F0FDB99429C
:1015800008BF904204D00AD3520043EB0303B0E7F4
:101590004FEA1646B6EB144F08BF85F00105B4F5C7
:1015A000803401EB041181EAC57100DB70BD01F1EB
:1015B000C04101F000414FF0000070BD4FEA45719D
:1015C0004FF0000001F0004170BD1CEA131F09D06C
:1015D0004FF0000001F0004170BDFFF716FF00BFA3
:1015E000EDFFFF3EBDE8704002494FF0000070473C
:1015F0000000FF070000F87F0808A0F500114FEA7F
:101600003101704710B591EA030F81F000413FF5B9
:10161000D3AC83F0004300F009B8000010B591EAA4
:10162000030F48BF83F000433FF5C6AC841A71EB4B
:10163000030C07D28CF0004C121943EB0C03001B77
:1016400061EB0C014FEA1154A4EB135CDFF8A4E149
:101650001EEA430F18BF9EEA445F00F0B48021EAFF
:10166000045123EA6E035242C3EB6E0338BF5B1E84
:10167000DCF1200E25D322FA0CFE10EB0E0043FA0B
:101680000CFE41EB0E01CCF1200E03FA0EFE10EB26
:101690000E00CCF1200E51F1000129D401EB0451D0
:1016A00012FA0EF2BDE8104058BF7047401C1CBF34
:1016B000B2F1004F704700280CBF491C20F0010018
:1016C000704712EB020E43EB030218BF4FF0010EFE
:1016D0004EEA4202ACF1200CDCF11E0E56D943FA60
:1016E0000CFE10EB0E00CCF11E0E51F1FF31D5D5E2
:1016F0000EF1010E12FA0EFE404141EB010101EB29
:10170000445C5FEA5C5C10D901EB045110EBDE70C5
:1017100038BFBEF1004FBDE8104018BF7047002829
:101720000CBF491C20F00100704734D24FEAD42C82
:1017300024F4006411F500111BD0B1FA81F20B3AC8
:10174000A41AA41ED2F12003914030FA03F31943E6
:10175000904001EBCC7101EB0451002CBDE810402E
:10176000A8BF704701F1C04101F000414FF00000F7
:101770007047B0FA80F310FA03F102D1BDE81040CF
:101780007047E41A173C4805C90AE2E701EB045127
:10179000BDE81040704749104FEA300001EB04519A
:1017A000BDE8104002E04FF0000170474A0008BF5A
:1017B0000042F8D0B2F5001F28BF704701F0004189
:1017C0004FF0000070479EEA445F07D011EA5E0FB9
:1017D000BDE8104004BF002100207047BDE8104064
:1017E00070B5FFF712FE00BF40DFF63E104683F0F3
:1017F000004170470000E0FF01020000000000000F
:1018000000000102030406070809029E240C984800
:10181000401E000802030405060708090A0B0C0D08
:101820000E0F1010481800080000002010000000E3
:101830002801000858180008100000206806000061
:10184000440100080000000001000000100000003A
:081850000024F4000000000078
:04000005080000ED02
:00000001FF
